{
  "_format": "hh-sol-artifact-1",
  "contractName": "Agora",
  "sourceName": "src/backend/contracts/Agora_contracts.sol",
  "abi": [
    {
      "inputs": [
        {
          "internalType": "address",
          "name": "_artist",
          "type": "address"
        },
        {
          "internalType": "uint256",
          "name": "_royaltyFee",
          "type": "uint256"
        },
        {
          "internalType": "uint256[]",
          "name": "_prices",
          "type": "uint256[]"
        }
      ],
      "stateMutability": "payable",
      "type": "constructor"
    },
    {
      "anonymous": false,
      "inputs": [
        {
          "indexed": true,
          "internalType": "address",
          "name": "owner",
          "type": "address"
        },
        {
          "indexed": true,
          "internalType": "address",
          "name": "approved",
          "type": "address"
        },
        {
          "indexed": true,
          "internalType": "uint256",
          "name": "tokenId",
          "type": "uint256"
        }
      ],
      "name": "Approval",
      "type": "event"
    },
    {
      "anonymous": false,
      "inputs": [
        {
          "indexed": true,
          "internalType": "address",
          "name": "owner",
          "type": "address"
        },
        {
          "indexed": true,
          "internalType": "address",
          "name": "operator",
          "type": "address"
        },
        {
          "indexed": false,
          "internalType": "bool",
          "name": "approved",
          "type": "bool"
        }
      ],
      "name": "ApprovalForAll",
      "type": "event"
    },
    {
      "anonymous": false,
      "inputs": [
        {
          "indexed": true,
          "internalType": "uint256",
          "name": "tokenId",
          "type": "uint256"
        },
        {
          "indexed": true,
          "internalType": "address",
          "name": "seller",
          "type": "address"
        },
        {
          "indexed": false,
          "internalType": "address",
          "name": "buyer",
          "type": "address"
        },
        {
          "indexed": false,
          "internalType": "uint256",
          "name": "price",
          "type": "uint256"
        }
      ],
      "name": "MarketItemBought",
      "type": "event"
    },
    {
      "anonymous": false,
      "inputs": [
        {
          "indexed": true,
          "internalType": "address",
          "name": "previousOwner",
          "type": "address"
        },
        {
          "indexed": true,
          "internalType": "address",
          "name": "newOwner",
          "type": "address"
        }
      ],
      "name": "OwnershipTransferred",
      "type": "event"
    },
    {
      "anonymous": false,
      "inputs": [
        {
          "indexed": true,
          "internalType": "address",
          "name": "from",
          "type": "address"
        },
        {
          "indexed": true,
          "internalType": "address",
          "name": "to",
          "type": "address"
        },
        {
          "indexed": true,
          "internalType": "uint256",
          "name": "tokenId",
          "type": "uint256"
        }
      ],
      "name": "Transfer",
      "type": "event"
    },
    {
      "inputs": [
        {
          "internalType": "address",
          "name": "to",
          "type": "address"
        },
        {
          "internalType": "uint256",
          "name": "tokenId",
          "type": "uint256"
        }
      ],
      "name": "approve",
      "outputs": [],
      "stateMutability": "nonpayable",
      "type": "function"
    },
    {
      "inputs": [],
      "name": "artist",
      "outputs": [
        {
          "internalType": "address",
          "name": "",
          "type": "address"
        }
      ],
      "stateMutability": "view",
      "type": "function"
    },
    {
      "inputs": [
        {
          "internalType": "address",
          "name": "owner",
          "type": "address"
        }
      ],
      "name": "balanceOf",
      "outputs": [
        {
          "internalType": "uint256",
          "name": "",
          "type": "uint256"
        }
      ],
      "stateMutability": "view",
      "type": "function"
    },
    {
      "inputs": [],
      "name": "baseExtension",
      "outputs": [
        {
          "internalType": "string",
          "name": "",
          "type": "string"
        }
      ],
      "stateMutability": "view",
      "type": "function"
    },
    {
      "inputs": [
        {
          "internalType": "uint256",
          "name": "_tokenId",
          "type": "uint256"
        }
      ],
      "name": "buyToken",
      "outputs": [],
      "stateMutability": "payable",
      "type": "function"
    },
    {
      "inputs": [
        {
          "internalType": "uint256",
          "name": "tokenId",
          "type": "uint256"
        }
      ],
      "name": "getApproved",
      "outputs": [
        {
          "internalType": "address",
          "name": "",
          "type": "address"
        }
      ],
      "stateMutability": "view",
      "type": "function"
    },
    {
      "inputs": [
        {
          "internalType": "address",
          "name": "owner",
          "type": "address"
        },
        {
          "internalType": "address",
          "name": "operator",
          "type": "address"
        }
      ],
      "name": "isApprovedForAll",
      "outputs": [
        {
          "internalType": "bool",
          "name": "",
          "type": "bool"
        }
      ],
      "stateMutability": "view",
      "type": "function"
    },
    {
      "inputs": [
        {
          "internalType": "uint256",
          "name": "",
          "type": "uint256"
        }
      ],
      "name": "marketItems",
      "outputs": [
        {
          "internalType": "uint256",
          "name": "tokenID",
          "type": "uint256"
        },
        {
          "internalType": "address payable",
          "name": "seller",
          "type": "address"
        },
        {
          "internalType": "uint256",
          "name": "price",
          "type": "uint256"
        }
      ],
      "stateMutability": "view",
      "type": "function"
    },
    {
      "inputs": [],
      "name": "metadataURI",
      "outputs": [
        {
          "internalType": "string",
          "name": "",
          "type": "string"
        }
      ],
      "stateMutability": "view",
      "type": "function"
    },
    {
      "inputs": [],
      "name": "name",
      "outputs": [
        {
          "internalType": "string",
          "name": "",
          "type": "string"
        }
      ],
      "stateMutability": "view",
      "type": "function"
    },
    {
      "inputs": [],
      "name": "owner",
      "outputs": [
        {
          "internalType": "address",
          "name": "",
          "type": "address"
        }
      ],
      "stateMutability": "view",
      "type": "function"
    },
    {
      "inputs": [
        {
          "internalType": "uint256",
          "name": "tokenId",
          "type": "uint256"
        }
      ],
      "name": "ownerOf",
      "outputs": [
        {
          "internalType": "address",
          "name": "",
          "type": "address"
        }
      ],
      "stateMutability": "view",
      "type": "function"
    },
    {
      "inputs": [],
      "name": "renounceOwnership",
      "outputs": [],
      "stateMutability": "nonpayable",
      "type": "function"
    },
    {
      "inputs": [],
      "name": "royaltyFee",
      "outputs": [
        {
          "internalType": "uint256",
          "name": "",
          "type": "uint256"
        }
      ],
      "stateMutability": "view",
      "type": "function"
    },
    {
      "inputs": [
        {
          "internalType": "address",
          "name": "from",
          "type": "address"
        },
        {
          "internalType": "address",
          "name": "to",
          "type": "address"
        },
        {
          "internalType": "uint256",
          "name": "tokenId",
          "type": "uint256"
        }
      ],
      "name": "safeTransferFrom",
      "outputs": [],
      "stateMutability": "nonpayable",
      "type": "function"
    },
    {
      "inputs": [
        {
          "internalType": "address",
          "name": "from",
          "type": "address"
        },
        {
          "internalType": "address",
          "name": "to",
          "type": "address"
        },
        {
          "internalType": "uint256",
          "name": "tokenId",
          "type": "uint256"
        },
        {
          "internalType": "bytes",
          "name": "_data",
          "type": "bytes"
        }
      ],
      "name": "safeTransferFrom",
      "outputs": [],
      "stateMutability": "nonpayable",
      "type": "function"
    },
    {
      "inputs": [
        {
          "internalType": "address",
          "name": "operator",
          "type": "address"
        },
        {
          "internalType": "bool",
          "name": "approved",
          "type": "bool"
        }
      ],
      "name": "setApprovalForAll",
      "outputs": [],
      "stateMutability": "nonpayable",
      "type": "function"
    },
    {
      "inputs": [
        {
          "internalType": "bytes4",
          "name": "interfaceId",
          "type": "bytes4"
        }
      ],
      "name": "supportsInterface",
      "outputs": [
        {
          "internalType": "bool",
          "name": "",
          "type": "bool"
        }
      ],
      "stateMutability": "view",
      "type": "function"
    },
    {
      "inputs": [],
      "name": "symbol",
      "outputs": [
        {
          "internalType": "string",
          "name": "",
          "type": "string"
        }
      ],
      "stateMutability": "view",
      "type": "function"
    },
    {
      "inputs": [
        {
          "internalType": "uint256",
          "name": "tokenId",
          "type": "uint256"
        }
      ],
      "name": "tokenURI",
      "outputs": [
        {
          "internalType": "string",
          "name": "",
          "type": "string"
        }
      ],
      "stateMutability": "view",
      "type": "function"
    },
    {
      "inputs": [
        {
          "internalType": "address",
          "name": "from",
          "type": "address"
        },
        {
          "internalType": "address",
          "name": "to",
          "type": "address"
        },
        {
          "internalType": "uint256",
          "name": "tokenId",
          "type": "uint256"
        }
      ],
      "name": "transferFrom",
      "outputs": [],
      "stateMutability": "nonpayable",
      "type": "function"
    },
    {
      "inputs": [
        {
          "internalType": "address",
          "name": "newOwner",
          "type": "address"
        }
      ],
      "name": "transferOwnership",
      "outputs": [],
      "stateMutability": "nonpayable",
      "type": "function"
    },
    {
      "inputs": [
        {
          "internalType": "uint256",
          "name": "_royaltyFee",
          "type": "uint256"
        }
      ],
      "name": "updateRoyaltyFee",
      "outputs": [],
      "stateMutability": "nonpayable",
      "type": "function"
    }
  ],
  "bytecode": "0x608060405260405180608001604052806059815260200162003e0e60599139600790805190602001906200003592919062000712565b506040518060400160405280600581526020017f2e6a736f6e000000000000000000000000000000000000000000000000000000815250600890805190602001906200008392919062000712565b5060405162003e6738038062003e678339818101604052810190620000a9919062000892565b6040518060400160405280600581526020017f41676f72610000000000000000000000000000000000000000000000000000008152506040518060400160405280600481526020017f414752410000000000000000000000000000000000000000000000000000000081525081600090805190602001906200012d92919062000712565b5080600190805190602001906200014692919062000712565b505050620001696200015d620003d460201b60201c565b620003dc60201b60201c565b3482825162000179919062000aeb565b1115620001bd576040517f08c379a0000000000000000000000000000000000000000000000000000000008152600401620001b490620009bf565b60405180910390fd5b81600a8190555082600960006101000a81548173ffffffffffffffffffffffffffffffffffffffff021916908373ffffffffffffffffffffffffffffffffffffffff16021790555060005b81518160ff161015620003ca576000828260ff168151811062000254577f4e487b7100000000000000000000000000000000000000000000000000000000600052603260045260246000fd5b6020026020010151116200029f576040517f08c379a0000000000000000000000000000000000000000000000000000000008152600401620002969062000a03565b60405180910390fd5b620002b4308260ff16620004a260201b60201c565b600b60405180606001604052808360ff1681526020013373ffffffffffffffffffffffffffffffffffffffff168152602001848460ff168151811062000323577f4e487b7100000000000000000000000000000000000000000000000000000000600052603260045260246000fd5b602002602001015181525090806001815401808255809150506001900390600052602060002090600302016000909190919091506000820151816000015560208201518160010160006101000a81548173ffffffffffffffffffffffffffffffffffffffff021916908373ffffffffffffffffffffffffffffffffffffffff1602179055506040820151816002015550508080620003c19062000c03565b91505062000208565b5050505062000dce565b600033905090565b6000600660009054906101000a900473ffffffffffffffffffffffffffffffffffffffff16905081600660006101000a81548173ffffffffffffffffffffffffffffffffffffffff021916908373ffffffffffffffffffffffffffffffffffffffff1602179055508173ffffffffffffffffffffffffffffffffffffffff168173ffffffffffffffffffffffffffffffffffffffff167f8be0079c531659141344cd1fd0a4f28419497f9722a3daafe3b4186f6b6457e060405160405180910390a35050565b600073ffffffffffffffffffffffffffffffffffffffff168273ffffffffffffffffffffffffffffffffffffffff16141562000515576040517f08c379a00000000000000000000000000000000000000000000000000000000081526004016200050c90620009e1565b60405180910390fd5b62000526816200069c60201b60201c565b1562000569576040517f08c379a000000000000000000000000000000000000000000000000000000000815260040162000560906200099d565b60405180910390fd5b6200057d600083836200070860201b60201c565b6001600360008473ffffffffffffffffffffffffffffffffffffffff1673ffffffffffffffffffffffffffffffffffffffff1681526020019081526020016000206000828254620005cf919062000a8e565b92505081905550816002600083815260200190815260200160002060006101000a81548173ffffffffffffffffffffffffffffffffffffffff021916908373ffffffffffffffffffffffffffffffffffffffff160217905550808273ffffffffffffffffffffffffffffffffffffffff16600073ffffffffffffffffffffffffffffffffffffffff167fddf252ad1be2c89b69c2b068fc378daa952ba7f163c4a11628f55a4df523b3ef60405160405180910390a462000698600083836200070d60201b60201c565b5050565b60008073ffffffffffffffffffffffffffffffffffffffff166002600084815260200190815260200160002060009054906101000a900473ffffffffffffffffffffffffffffffffffffffff1673ffffffffffffffffffffffffffffffffffffffff1614159050919050565b505050565b505050565b828054620007209062000b97565b90600052602060002090601f01602090048101928262000744576000855562000790565b82601f106200075f57805160ff191683800117855562000790565b8280016001018555821562000790579182015b828111156200078f57825182559160200191906001019062000772565b5b5090506200079f9190620007a3565b5090565b5b80821115620007be576000816000905550600101620007a4565b5090565b6000620007d9620007d38462000a4e565b62000a25565b90508083825260208201905082856020860282011115620007f957600080fd5b60005b858110156200082d57816200081288826200087b565b845260208401935060208301925050600181019050620007fc565b5050509392505050565b600081519050620008488162000d9a565b92915050565b600082601f8301126200086057600080fd5b815162000872848260208601620007c2565b91505092915050565b6000815190506200088c8162000db4565b92915050565b600080600060608486031215620008a857600080fd5b6000620008b88682870162000837565b9350506020620008cb868287016200087b565b925050604084015167ffffffffffffffff811115620008e957600080fd5b620008f7868287016200084e565b9150509250925092565b600062000910601c8362000a7d565b91506200091d8262000cd0565b602082019050919050565b60006200093760348362000a7d565b9150620009448262000cf9565b604082019050919050565b60006200095e60208362000a7d565b91506200096b8262000d48565b602082019050919050565b600062000985601c8362000a7d565b9150620009928262000d71565b602082019050919050565b60006020820190508181036000830152620009b88162000901565b9050919050565b60006020820190508181036000830152620009da8162000928565b9050919050565b60006020820190508181036000830152620009fc816200094f565b9050919050565b6000602082019050818103600083015262000a1e8162000976565b9050919050565b600062000a3162000a44565b905062000a3f828262000bcd565b919050565b6000604051905090565b600067ffffffffffffffff82111562000a6c5762000a6b62000c90565b5b602082029050602081019050919050565b600082825260208201905092915050565b600062000a9b8262000b80565b915062000aa88362000b80565b9250827fffffffffffffffffffffffffffffffffffffffffffffffffffffffffffffffff0382111562000ae05762000adf62000c32565b5b828201905092915050565b600062000af88262000b80565b915062000b058362000b80565b9250817fffffffffffffffffffffffffffffffffffffffffffffffffffffffffffffffff048311821515161562000b415762000b4062000c32565b5b828202905092915050565b600062000b598262000b60565b9050919050565b600073ffffffffffffffffffffffffffffffffffffffff82169050919050565b6000819050919050565b600060ff82169050919050565b6000600282049050600182168062000bb057607f821691505b6020821081141562000bc75762000bc662000c61565b5b50919050565b62000bd88262000cbf565b810181811067ffffffffffffffff8211171562000bfa5762000bf962000c90565b5b80604052505050565b600062000c108262000b8a565b915060ff82141562000c275762000c2662000c32565b5b600182019050919050565b7f4e487b7100000000000000000000000000000000000000000000000000000000600052601160045260246000fd5b7f4e487b7100000000000000000000000000000000000000000000000000000000600052602260045260246000fd5b7f4e487b7100000000000000000000000000000000000000000000000000000000600052604160045260246000fd5b6000601f19601f8301169050919050565b7f4552433732313a20746f6b656e20616c7265616479206d696e74656400000000600082015250565b7f6465706c6f796572206d7573742070617920726f79616c74792066656520666f60008201527f72206561636820746f6b656e206c697374656420000000000000000000000000602082015250565b7f4552433732313a206d696e7420746f20746865207a65726f2061646472657373600082015250565b7f5072696365206d7573742062652067726561746572207468616e203000000000600082015250565b62000da58162000b4c565b811462000db157600080fd5b50565b62000dbf8162000b80565b811462000dcb57600080fd5b50565b6130308062000dde6000396000f3fe6080604052600436106101405760003560e01c80636352211e116100b6578063b88d4fde1161006f578063b88d4fde1461044f578063b8997a9714610478578063c6682862146104a3578063c87b56dd146104ce578063e985e9c51461050b578063f2fde38b1461054857610140565b80636352211e1461033f57806370a082311461037c578063715018a6146103b95780638da5cb5b146103d057806395d89b41146103fb578063a22cb4651461042657610140565b806323b872dd1161010857806323b872dd1461023e5780632d296bf11461026757806342842e0e1461028357806343bc1612146102ac5780634e83be47146102d757806351f28e141461030057610140565b806301ffc9a71461014557806303ee438c1461018257806306fdde03146101ad578063081812fc146101d8578063095ea7b314610215575b600080fd5b34801561015157600080fd5b5061016c600480360381019061016791906120f9565b610571565b6040516101799190612514565b60405180910390f35b34801561018e57600080fd5b50610197610653565b6040516101a4919061252f565b60405180910390f35b3480156101b957600080fd5b506101c26106e1565b6040516101cf919061252f565b60405180910390f35b3480156101e457600080fd5b506101ff60048036038101906101fa919061214b565b610773565b60405161020c9190612484565b60405180910390f35b34801561022157600080fd5b5061023c600480360381019061023791906120bd565b6107f8565b005b34801561024a57600080fd5b5061026560048036038101906102609190611fb7565b610910565b005b610281600480360381019061027c919061214b565b610970565b005b34801561028f57600080fd5b506102aa60048036038101906102a59190611fb7565b610c7b565b005b3480156102b857600080fd5b506102c1610c9b565b6040516102ce9190612484565b60405180910390f35b3480156102e357600080fd5b506102fe60048036038101906102f9919061214b565b610cc1565b005b34801561030c57600080fd5b506103276004803603810190610322919061214b565b610d47565b6040516103369392919061274c565b60405180910390f35b34801561034b57600080fd5b506103666004803603810190610361919061214b565b610da1565b6040516103739190612484565b60405180910390f35b34801561038857600080fd5b506103a3600480360381019061039e9190611f52565b610e53565b6040516103b09190612731565b60405180910390f35b3480156103c557600080fd5b506103ce610f0b565b005b3480156103dc57600080fd5b506103e5610f93565b6040516103f29190612484565b60405180910390f35b34801561040757600080fd5b50610410610fbd565b60405161041d919061252f565b60405180910390f35b34801561043257600080fd5b5061044d60048036038101906104489190612081565b61104f565b005b34801561045b57600080fd5b5061047660048036038101906104719190612006565b611065565b005b34801561048457600080fd5b5061048d6110c7565b60405161049a9190612731565b60405180910390f35b3480156104af57600080fd5b506104b86110cd565b6040516104c5919061252f565b60405180910390f35b3480156104da57600080fd5b506104f560048036038101906104f0919061214b565b61115b565b604051610502919061252f565b60405180910390f35b34801561051757600080fd5b50610532600480360381019061052d9190611f7b565b611202565b60405161053f9190612514565b60405180910390f35b34801561055457600080fd5b5061056f600480360381019061056a9190611f52565b611296565b005b60007f80ac58cd000000000000000000000000000000000000000000000000000000007bffffffffffffffffffffffffffffffffffffffffffffffffffffffff1916827bffffffffffffffffffffffffffffffffffffffffffffffffffffffff1916148061063c57507f5b5e139f000000000000000000000000000000000000000000000000000000007bffffffffffffffffffffffffffffffffffffffffffffffffffffffff1916827bffffffffffffffffffffffffffffffffffffffffffffffffffffffff1916145b8061064c575061064b8261138e565b5b9050919050565b600780546106609061299f565b80601f016020809104026020016040519081016040528092919081815260200182805461068c9061299f565b80156106d95780601f106106ae576101008083540402835291602001916106d9565b820191906000526020600020905b8154815290600101906020018083116106bc57829003601f168201915b505050505081565b6060600080546106f09061299f565b80601f016020809104026020016040519081016040528092919081815260200182805461071c9061299f565b80156107695780601f1061073e57610100808354040283529160200191610769565b820191906000526020600020905b81548152906001019060200180831161074c57829003601f168201915b5050505050905090565b600061077e826113f8565b6107bd576040517f08c379a00000000000000000000000000000000000000000000000000000000081526004016107b490612691565b60405180910390fd5b6004600083815260200190815260200160002060009054906101000a900473ffffffffffffffffffffffffffffffffffffffff169050919050565b600061080382610da1565b90508073ffffffffffffffffffffffffffffffffffffffff168373ffffffffffffffffffffffffffffffffffffffff161415610874576040517f08c379a000000000000000000000000000000000000000000000000000000000815260040161086b906126f1565b60405180910390fd5b8073ffffffffffffffffffffffffffffffffffffffff16610893611464565b73ffffffffffffffffffffffffffffffffffffffff1614806108c257506108c1816108bc611464565b611202565b5b610901576040517f08c379a00000000000000000000000000000000000000000000000000000000081526004016108f890612631565b60405180910390fd5b61090b838361146c565b505050565b61092161091b611464565b82611525565b610960576040517f08c379a000000000000000000000000000000000000000000000000000000000815260040161095790612711565b60405180910390fd5b61096b838383611603565b505050565b600960009054906101000a900473ffffffffffffffffffffffffffffffffffffffff1673ffffffffffffffffffffffffffffffffffffffff166108fc600a549081150290604051600060405180830381858888f193505050501580156109da573d6000803e3d6000fd5b506000600b8281548110610a17577f4e487b7100000000000000000000000000000000000000000000000000000000600052603260045260246000fd5b90600052602060002090600302016002015490506000600b8381548110610a67577f4e487b7100000000000000000000000000000000000000000000000000000000600052603260045260246000fd5b906000526020600020906003020160010160009054906101000a900473ffffffffffffffffffffffffffffffffffffffff169050813414610add576040517f08c379a0000000000000000000000000000000000000000000000000000000008152600401610ad490612591565b60405180910390fd5b6000600b8481548110610b19577f4e487b7100000000000000000000000000000000000000000000000000000000600052603260045260246000fd5b906000526020600020906003020160010160006101000a81548173ffffffffffffffffffffffffffffffffffffffff021916908373ffffffffffffffffffffffffffffffffffffffff160217905550610b73303385611603565b600960009054906101000a900473ffffffffffffffffffffffffffffffffffffffff1673ffffffffffffffffffffffffffffffffffffffff166108fc600a549081150290604051600060405180830381858888f19350505050158015610bdd573d6000803e3d6000fd5b508073ffffffffffffffffffffffffffffffffffffffff166108fc349081150290604051600060405180830381858888f19350505050158015610c24573d6000803e3d6000fd5b508073ffffffffffffffffffffffffffffffffffffffff16837fd356b8423ef89ccba8e4f1dbeccc60b41825fd97d432f2e6a6dbd11ae6ecec113385604051610c6e9291906124eb565b60405180910390a3505050565b610c9683838360405180602001604052806000815250611065565b505050565b600960009054906101000a900473ffffffffffffffffffffffffffffffffffffffff1681565b610cc9611464565b73ffffffffffffffffffffffffffffffffffffffff16610ce7610f93565b73ffffffffffffffffffffffffffffffffffffffff1614610d3d576040517f08c379a0000000000000000000000000000000000000000000000000000000008152600401610d34906126b1565b60405180910390fd5b80600a8190555050565b600b8181548110610d5757600080fd5b90600052602060002090600302016000915090508060000154908060010160009054906101000a900473ffffffffffffffffffffffffffffffffffffffff16908060020154905083565b6000806002600084815260200190815260200160002060009054906101000a900473ffffffffffffffffffffffffffffffffffffffff169050600073ffffffffffffffffffffffffffffffffffffffff168173ffffffffffffffffffffffffffffffffffffffff161415610e4a576040517f08c379a0000000000000000000000000000000000000000000000000000000008152600401610e4190612671565b60405180910390fd5b80915050919050565b60008073ffffffffffffffffffffffffffffffffffffffff168273ffffffffffffffffffffffffffffffffffffffff161415610ec4576040517f08c379a0000000000000000000000000000000000000000000000000000000008152600401610ebb90612651565b60405180910390fd5b600360008373ffffffffffffffffffffffffffffffffffffffff1673ffffffffffffffffffffffffffffffffffffffff168152602001908152602001600020549050919050565b610f13611464565b73ffffffffffffffffffffffffffffffffffffffff16610f31610f93565b73ffffffffffffffffffffffffffffffffffffffff1614610f87576040517f08c379a0000000000000000000000000000000000000000000000000000000008152600401610f7e906126b1565b60405180910390fd5b610f91600061186a565b565b6000600660009054906101000a900473ffffffffffffffffffffffffffffffffffffffff16905090565b606060018054610fcc9061299f565b80601f0160208091040260200160405190810160405280929190818152602001828054610ff89061299f565b80156110455780601f1061101a57610100808354040283529160200191611045565b820191906000526020600020905b81548152906001019060200180831161102857829003601f168201915b5050505050905090565b61106161105a611464565b8383611930565b5050565b611076611070611464565b83611525565b6110b5576040517f08c379a00000000000000000000000000000000000000000000000000000000081526004016110ac90612711565b60405180910390fd5b6110c184848484611a9d565b50505050565b600a5481565b600880546110da9061299f565b80601f01602080910402602001604051908101604052809291908181526020018280546111069061299f565b80156111535780601f1061112857610100808354040283529160200191611153565b820191906000526020600020905b81548152906001019060200180831161113657829003601f168201915b505050505081565b6060611166826113f8565b6111a5576040517f08c379a000000000000000000000000000000000000000000000000000000000815260040161119c906126d1565b60405180910390fd5b60006111af611af9565b905060008151116111cf57604051806020016040528060008152506111fa565b806111d984611b10565b6040516020016111ea929190612460565b6040516020818303038152906040525b915050919050565b6000600560008473ffffffffffffffffffffffffffffffffffffffff1673ffffffffffffffffffffffffffffffffffffffff16815260200190815260200160002060008373ffffffffffffffffffffffffffffffffffffffff1673ffffffffffffffffffffffffffffffffffffffff16815260200190815260200160002060009054906101000a900460ff16905092915050565b61129e611464565b73ffffffffffffffffffffffffffffffffffffffff166112bc610f93565b73ffffffffffffffffffffffffffffffffffffffff1614611312576040517f08c379a0000000000000000000000000000000000000000000000000000000008152600401611309906126b1565b60405180910390fd5b600073ffffffffffffffffffffffffffffffffffffffff168173ffffffffffffffffffffffffffffffffffffffff161415611382576040517f08c379a000000000000000000000000000000000000000000000000000000000815260040161137990612571565b60405180910390fd5b61138b8161186a565b50565b60007f01ffc9a7000000000000000000000000000000000000000000000000000000007bffffffffffffffffffffffffffffffffffffffffffffffffffffffff1916827bffffffffffffffffffffffffffffffffffffffffffffffffffffffff1916149050919050565b60008073ffffffffffffffffffffffffffffffffffffffff166002600084815260200190815260200160002060009054906101000a900473ffffffffffffffffffffffffffffffffffffffff1673ffffffffffffffffffffffffffffffffffffffff1614159050919050565b600033905090565b816004600083815260200190815260200160002060006101000a81548173ffffffffffffffffffffffffffffffffffffffff021916908373ffffffffffffffffffffffffffffffffffffffff160217905550808273ffffffffffffffffffffffffffffffffffffffff166114df83610da1565b73ffffffffffffffffffffffffffffffffffffffff167f8c5be1e5ebec7d5bd14f71427d1e84f3dd0314c0f7b2291e5b200ac8c7c3b92560405160405180910390a45050565b6000611530826113f8565b61156f576040517f08c379a000000000000000000000000000000000000000000000000000000000815260040161156690612611565b60405180910390fd5b600061157a83610da1565b90508073ffffffffffffffffffffffffffffffffffffffff168473ffffffffffffffffffffffffffffffffffffffff1614806115e957508373ffffffffffffffffffffffffffffffffffffffff166115d184610773565b73ffffffffffffffffffffffffffffffffffffffff16145b806115fa57506115f98185611202565b5b91505092915050565b8273ffffffffffffffffffffffffffffffffffffffff1661162382610da1565b73ffffffffffffffffffffffffffffffffffffffff1614611679576040517f08c379a0000000000000000000000000000000000000000000000000000000008152600401611670906125b1565b60405180910390fd5b600073ffffffffffffffffffffffffffffffffffffffff168273ffffffffffffffffffffffffffffffffffffffff1614156116e9576040517f08c379a00000000000000000000000000000000000000000000000000000000081526004016116e0906125d1565b60405180910390fd5b6116f4838383611cbd565b6116ff60008261146c565b6001600360008573ffffffffffffffffffffffffffffffffffffffff1673ffffffffffffffffffffffffffffffffffffffff168152602001908152602001600020600082825461174f91906128a3565b925050819055506001600360008473ffffffffffffffffffffffffffffffffffffffff1673ffffffffffffffffffffffffffffffffffffffff16815260200190815260200160002060008282546117a6919061281c565b92505081905550816002600083815260200190815260200160002060006101000a81548173ffffffffffffffffffffffffffffffffffffffff021916908373ffffffffffffffffffffffffffffffffffffffff160217905550808273ffffffffffffffffffffffffffffffffffffffff168473ffffffffffffffffffffffffffffffffffffffff167fddf252ad1be2c89b69c2b068fc378daa952ba7f163c4a11628f55a4df523b3ef60405160405180910390a4611865838383611cc2565b505050565b6000600660009054906101000a900473ffffffffffffffffffffffffffffffffffffffff16905081600660006101000a81548173ffffffffffffffffffffffffffffffffffffffff021916908373ffffffffffffffffffffffffffffffffffffffff1602179055508173ffffffffffffffffffffffffffffffffffffffff168173ffffffffffffffffffffffffffffffffffffffff167f8be0079c531659141344cd1fd0a4f28419497f9722a3daafe3b4186f6b6457e060405160405180910390a35050565b8173ffffffffffffffffffffffffffffffffffffffff168373ffffffffffffffffffffffffffffffffffffffff16141561199f576040517f08c379a0000000000000000000000000000000000000000000000000000000008152600401611996906125f1565b60405180910390fd5b80600560008573ffffffffffffffffffffffffffffffffffffffff1673ffffffffffffffffffffffffffffffffffffffff16815260200190815260200160002060008473ffffffffffffffffffffffffffffffffffffffff1673ffffffffffffffffffffffffffffffffffffffff16815260200190815260200160002060006101000a81548160ff0219169083151502179055508173ffffffffffffffffffffffffffffffffffffffff168373ffffffffffffffffffffffffffffffffffffffff167f17307eab39ab6107e8899845ad3d59bd9653f200f220920489ca2b5937696c3183604051611a909190612514565b60405180910390a3505050565b611aa8848484611603565b611ab484848484611cc7565b611af3576040517f08c379a0000000000000000000000000000000000000000000000000000000008152600401611aea90612551565b60405180910390fd5b50505050565b606060405180602001604052806000815250905090565b60606000821415611b58576040518060400160405280600181526020017f30000000000000000000000000000000000000000000000000000000000000008152509050611cb8565b600082905060005b60008214611b8a578080611b7390612a02565b915050600a82611b839190612872565b9150611b60565b60008167ffffffffffffffff811115611bcc577f4e487b7100000000000000000000000000000000000000000000000000000000600052604160045260246000fd5b6040519080825280601f01601f191660200182016040528015611bfe5781602001600182028036833780820191505090505b5090505b60008514611cb157600182611c1791906128a3565b9150600a85611c269190612a4b565b6030611c32919061281c565b60f81b818381518110611c6e577f4e487b7100000000000000000000000000000000000000000000000000000000600052603260045260246000fd5b60200101907effffffffffffffffffffffffffffffffffffffffffffffffffffffffffffff1916908160001a905350600a85611caa9190612872565b9450611c02565b8093505050505b919050565b505050565b505050565b6000611ce88473ffffffffffffffffffffffffffffffffffffffff16611e5e565b15611e51578373ffffffffffffffffffffffffffffffffffffffff1663150b7a02611d11611464565b8786866040518563ffffffff1660e01b8152600401611d33949392919061249f565b602060405180830381600087803b158015611d4d57600080fd5b505af1925050508015611d7e57506040513d601f19601f82011682018060405250810190611d7b9190612122565b60015b611e01573d8060008114611dae576040519150601f19603f3d011682016040523d82523d6000602084013e611db3565b606091505b50600081511415611df9576040517f08c379a0000000000000000000000000000000000000000000000000000000008152600401611df090612551565b60405180910390fd5b805181602001fd5b63150b7a0260e01b7bffffffffffffffffffffffffffffffffffffffffffffffffffffffff1916817bffffffffffffffffffffffffffffffffffffffffffffffffffffffff191614915050611e56565b600190505b949350505050565b6000808273ffffffffffffffffffffffffffffffffffffffff163b119050919050565b6000611e94611e8f846127a8565b612783565b905082815260208101848484011115611eac57600080fd5b611eb784828561295d565b509392505050565b600081359050611ece81612f9e565b92915050565b600081359050611ee381612fb5565b92915050565b600081359050611ef881612fcc565b92915050565b600081519050611f0d81612fcc565b92915050565b600082601f830112611f2457600080fd5b8135611f34848260208601611e81565b91505092915050565b600081359050611f4c81612fe3565b92915050565b600060208284031215611f6457600080fd5b6000611f7284828501611ebf565b91505092915050565b60008060408385031215611f8e57600080fd5b6000611f9c85828601611ebf565b9250506020611fad85828601611ebf565b9150509250929050565b600080600060608486031215611fcc57600080fd5b6000611fda86828701611ebf565b9350506020611feb86828701611ebf565b9250506040611ffc86828701611f3d565b9150509250925092565b6000806000806080858703121561201c57600080fd5b600061202a87828801611ebf565b945050602061203b87828801611ebf565b935050604061204c87828801611f3d565b925050606085013567ffffffffffffffff81111561206957600080fd5b61207587828801611f13565b91505092959194509250565b6000806040838503121561209457600080fd5b60006120a285828601611ebf565b92505060206120b385828601611ed4565b9150509250929050565b600080604083850312156120d057600080fd5b60006120de85828601611ebf565b92505060206120ef85828601611f3d565b9150509250929050565b60006020828403121561210b57600080fd5b600061211984828501611ee9565b91505092915050565b60006020828403121561213457600080fd5b600061214284828501611efe565b91505092915050565b60006020828403121561215d57600080fd5b600061216b84828501611f3d565b91505092915050565b61217d816128e9565b82525050565b61218c816128d7565b82525050565b61219b816128fb565b82525050565b60006121ac826127d9565b6121b681856127ef565b93506121c681856020860161296c565b6121cf81612b38565b840191505092915050565b60006121e5826127e4565b6121ef8185612800565b93506121ff81856020860161296c565b61220881612b38565b840191505092915050565b600061221e826127e4565b6122288185612811565b935061223881856020860161296c565b80840191505092915050565b6000612251603283612800565b915061225c82612b49565b604082019050919050565b6000612274602683612800565b915061227f82612b98565b604082019050919050565b6000612297604083612800565b91506122a282612be7565b604082019050919050565b60006122ba602583612800565b91506122c582612c36565b604082019050919050565b60006122dd602483612800565b91506122e882612c85565b604082019050919050565b6000612300601983612800565b915061230b82612cd4565b602082019050919050565b6000612323602c83612800565b915061232e82612cfd565b604082019050919050565b6000612346603883612800565b915061235182612d4c565b604082019050919050565b6000612369602a83612800565b915061237482612d9b565b604082019050919050565b600061238c602983612800565b915061239782612dea565b604082019050919050565b60006123af602c83612800565b91506123ba82612e39565b604082019050919050565b60006123d2602083612800565b91506123dd82612e88565b602082019050919050565b60006123f5602f83612800565b915061240082612eb1565b604082019050919050565b6000612418602183612800565b915061242382612f00565b604082019050919050565b600061243b603183612800565b915061244682612f4f565b604082019050919050565b61245a81612953565b82525050565b600061246c8285612213565b91506124788284612213565b91508190509392505050565b60006020820190506124996000830184612183565b92915050565b60006080820190506124b46000830187612183565b6124c16020830186612183565b6124ce6040830185612451565b81810360608301526124e081846121a1565b905095945050505050565b60006040820190506125006000830185612183565b61250d6020830184612451565b9392505050565b60006020820190506125296000830184612192565b92915050565b6000602082019050818103600083015261254981846121da565b905092915050565b6000602082019050818103600083015261256a81612244565b9050919050565b6000602082019050818103600083015261258a81612267565b9050919050565b600060208201905081810360008301526125aa8161228a565b9050919050565b600060208201905081810360008301526125ca816122ad565b9050919050565b600060208201905081810360008301526125ea816122d0565b9050919050565b6000602082019050818103600083015261260a816122f3565b9050919050565b6000602082019050818103600083015261262a81612316565b9050919050565b6000602082019050818103600083015261264a81612339565b9050919050565b6000602082019050818103600083015261266a8161235c565b9050919050565b6000602082019050818103600083015261268a8161237f565b9050919050565b600060208201905081810360008301526126aa816123a2565b9050919050565b600060208201905081810360008301526126ca816123c5565b9050919050565b600060208201905081810360008301526126ea816123e8565b9050919050565b6000602082019050818103600083015261270a8161240b565b9050919050565b6000602082019050818103600083015261272a8161242e565b9050919050565b60006020820190506127466000830184612451565b92915050565b60006060820190506127616000830186612451565b61276e6020830185612174565b61277b6040830184612451565b949350505050565b600061278d61279e565b905061279982826129d1565b919050565b6000604051905090565b600067ffffffffffffffff8211156127c3576127c2612b09565b5b6127cc82612b38565b9050602081019050919050565b600081519050919050565b600081519050919050565b600082825260208201905092915050565b600082825260208201905092915050565b600081905092915050565b600061282782612953565b915061283283612953565b9250827fffffffffffffffffffffffffffffffffffffffffffffffffffffffffffffffff0382111561286757612866612a7c565b5b828201905092915050565b600061287d82612953565b915061288883612953565b92508261289857612897612aab565b5b828204905092915050565b60006128ae82612953565b91506128b983612953565b9250828210156128cc576128cb612a7c565b5b828203905092915050565b60006128e282612933565b9050919050565b60006128f482612933565b9050919050565b60008115159050919050565b60007fffffffff0000000000000000000000000000000000000000000000000000000082169050919050565b600073ffffffffffffffffffffffffffffffffffffffff82169050919050565b6000819050919050565b82818337600083830152505050565b60005b8381101561298a57808201518184015260208101905061296f565b83811115612999576000848401525b50505050565b600060028204905060018216806129b757607f821691505b602082108114156129cb576129ca612ada565b5b50919050565b6129da82612b38565b810181811067ffffffffffffffff821117156129f9576129f8612b09565b5b80604052505050565b6000612a0d82612953565b91507fffffffffffffffffffffffffffffffffffffffffffffffffffffffffffffffff821415612a4057612a3f612a7c565b5b600182019050919050565b6000612a5682612953565b9150612a6183612953565b925082612a7157612a70612aab565b5b828206905092915050565b7f4e487b7100000000000000000000000000000000000000000000000000000000600052601160045260246000fd5b7f4e487b7100000000000000000000000000000000000000000000000000000000600052601260045260246000fd5b7f4e487b7100000000000000000000000000000000000000000000000000000000600052602260045260246000fd5b7f4e487b7100000000000000000000000000000000000000000000000000000000600052604160045260246000fd5b6000601f19601f8301169050919050565b7f4552433732313a207472616e7366657220746f206e6f6e20455243373231526560008201527f63656976657220696d706c656d656e7465720000000000000000000000000000602082015250565b7f4f776e61626c653a206e6577206f776e657220697320746865207a65726f206160008201527f6464726573730000000000000000000000000000000000000000000000000000602082015250565b7f506c656173652073656e64207468652061736b696e6720707269636520696e2060008201527f6f7264657220746f20636f6d706c65746520746865207472616e616374696f6e602082015250565b7f4552433732313a207472616e736665722066726f6d20696e636f72726563742060008201527f6f776e6572000000000000000000000000000000000000000000000000000000602082015250565b7f4552433732313a207472616e7366657220746f20746865207a65726f2061646460008201527f7265737300000000000000000000000000000000000000000000000000000000602082015250565b7f4552433732313a20617070726f766520746f2063616c6c657200000000000000600082015250565b7f4552433732313a206f70657261746f7220717565727920666f72206e6f6e657860008201527f697374656e7420746f6b656e0000000000000000000000000000000000000000602082015250565b7f4552433732313a20617070726f76652063616c6c6572206973206e6f74206f7760008201527f6e6572206e6f7220617070726f76656420666f7220616c6c0000000000000000602082015250565b7f4552433732313a2062616c616e636520717565727920666f7220746865207a6560008201527f726f206164647265737300000000000000000000000000000000000000000000602082015250565b7f4552433732313a206f776e657220717565727920666f72206e6f6e657869737460008201527f656e7420746f6b656e0000000000000000000000000000000000000000000000602082015250565b7f4552433732313a20617070726f76656420717565727920666f72206e6f6e657860008201527f697374656e7420746f6b656e0000000000000000000000000000000000000000602082015250565b7f4f776e61626c653a2063616c6c6572206973206e6f7420746865206f776e6572600082015250565b7f4552433732314d657461646174613a2055524920717565727920666f72206e6f60008201527f6e6578697374656e7420746f6b656e0000000000000000000000000000000000602082015250565b7f4552433732313a20617070726f76616c20746f2063757272656e74206f776e6560008201527f7200000000000000000000000000000000000000000000000000000000000000602082015250565b7f4552433732313a207472616e736665722063616c6c6572206973206e6f74206f60008201527f776e6572206e6f7220617070726f766564000000000000000000000000000000602082015250565b612fa7816128d7565b8114612fb257600080fd5b50565b612fbe816128fb565b8114612fc957600080fd5b50565b612fd581612907565b8114612fe057600080fd5b50565b612fec81612953565b8114612ff757600080fd5b5056fea2646970667358221220355cfe972b895acff3394954beb31a82a749688018ce6f3d320a6f8e16f235ac64736f6c6343000804003368747470733a2f2f62616679626569687a6c6e707637657135693575746b6d6337786575623367767a737a6a697175366a763572706264686934326e696566623664752e697066732e6e667473746f726167652e6c696e6b2f",
  "linkReferences": {},
  "deployedLinkReferences": {}
}