{
  "_format": "hh-sol-artifact-1",
  "contractName": "Agora",
  "sourceName": "src/backend/contracts/Agora_contracts.sol",
  "abi": [
    {
      "inputs": [
        {
          "internalType": "address",
          "name": "_artist",
          "type": "address"
        },
        {
          "internalType": "uint256",
          "name": "_royaltyFee",
          "type": "uint256"
        },
        {
          "internalType": "uint256[]",
          "name": "_prices",
          "type": "uint256[]"
        }
      ],
      "stateMutability": "payable",
      "type": "constructor"
    },
    {
      "anonymous": false,
      "inputs": [
        {
          "indexed": true,
          "internalType": "address",
          "name": "owner",
          "type": "address"
        },
        {
          "indexed": true,
          "internalType": "address",
          "name": "approved",
          "type": "address"
        },
        {
          "indexed": true,
          "internalType": "uint256",
          "name": "tokenId",
          "type": "uint256"
        }
      ],
      "name": "Approval",
      "type": "event"
    },
    {
      "anonymous": false,
      "inputs": [
        {
          "indexed": true,
          "internalType": "address",
          "name": "owner",
          "type": "address"
        },
        {
          "indexed": true,
          "internalType": "address",
          "name": "operator",
          "type": "address"
        },
        {
          "indexed": false,
          "internalType": "bool",
          "name": "approved",
          "type": "bool"
        }
      ],
      "name": "ApprovalForAll",
      "type": "event"
    },
    {
      "anonymous": false,
      "inputs": [
        {
          "indexed": true,
          "internalType": "uint256",
          "name": "tokenId",
          "type": "uint256"
        },
        {
          "indexed": true,
          "internalType": "address",
          "name": "seller",
          "type": "address"
        },
        {
          "indexed": false,
          "internalType": "address",
          "name": "buyer",
          "type": "address"
        },
        {
          "indexed": false,
          "internalType": "uint256",
          "name": "price",
          "type": "uint256"
        }
      ],
      "name": "MarketItemBought",
      "type": "event"
    },
    {
      "anonymous": false,
      "inputs": [
        {
          "indexed": true,
          "internalType": "uint256",
          "name": "tokenId",
          "type": "uint256"
        },
        {
          "indexed": true,
          "internalType": "address",
          "name": "seller",
          "type": "address"
        },
        {
          "indexed": false,
          "internalType": "uint256",
          "name": "price",
          "type": "uint256"
        }
      ],
      "name": "MarketItemRelisted",
      "type": "event"
    },
    {
      "anonymous": false,
      "inputs": [
        {
          "indexed": true,
          "internalType": "address",
          "name": "previousOwner",
          "type": "address"
        },
        {
          "indexed": true,
          "internalType": "address",
          "name": "newOwner",
          "type": "address"
        }
      ],
      "name": "OwnershipTransferred",
      "type": "event"
    },
    {
      "anonymous": false,
      "inputs": [
        {
          "indexed": true,
          "internalType": "address",
          "name": "from",
          "type": "address"
        },
        {
          "indexed": true,
          "internalType": "address",
          "name": "to",
          "type": "address"
        },
        {
          "indexed": true,
          "internalType": "uint256",
          "name": "tokenId",
          "type": "uint256"
        }
      ],
      "name": "Transfer",
      "type": "event"
    },
    {
      "inputs": [
        {
          "internalType": "address",
          "name": "to",
          "type": "address"
        },
        {
          "internalType": "uint256",
          "name": "tokenId",
          "type": "uint256"
        }
      ],
      "name": "approve",
      "outputs": [],
      "stateMutability": "nonpayable",
      "type": "function"
    },
    {
      "inputs": [],
      "name": "artist",
      "outputs": [
        {
          "internalType": "address",
          "name": "",
          "type": "address"
        }
      ],
      "stateMutability": "view",
      "type": "function"
    },
    {
      "inputs": [
        {
          "internalType": "address",
          "name": "owner",
          "type": "address"
        }
      ],
      "name": "balanceOf",
      "outputs": [
        {
          "internalType": "uint256",
          "name": "",
          "type": "uint256"
        }
      ],
      "stateMutability": "view",
      "type": "function"
    },
    {
      "inputs": [],
      "name": "baseExtension",
      "outputs": [
        {
          "internalType": "string",
          "name": "",
          "type": "string"
        }
      ],
      "stateMutability": "view",
      "type": "function"
    },
    {
      "inputs": [
        {
          "internalType": "uint256",
          "name": "_tokenId",
          "type": "uint256"
        }
      ],
      "name": "buyToken",
      "outputs": [],
      "stateMutability": "payable",
      "type": "function"
    },
    {
      "inputs": [],
      "name": "getAllUnsoldTokens",
      "outputs": [
        {
          "components": [
            {
              "internalType": "uint256",
              "name": "tokenId",
              "type": "uint256"
            },
            {
              "internalType": "address payable",
              "name": "seller",
              "type": "address"
            },
            {
              "internalType": "uint256",
              "name": "price",
              "type": "uint256"
            }
          ],
          "internalType": "struct Agora.MarketItem[]",
          "name": "",
          "type": "tuple[]"
        }
      ],
      "stateMutability": "view",
      "type": "function"
    },
    {
      "inputs": [
        {
          "internalType": "uint256",
          "name": "tokenId",
          "type": "uint256"
        }
      ],
      "name": "getApproved",
      "outputs": [
        {
          "internalType": "address",
          "name": "",
          "type": "address"
        }
      ],
      "stateMutability": "view",
      "type": "function"
    },
    {
      "inputs": [
        {
          "internalType": "address",
          "name": "owner",
          "type": "address"
        },
        {
          "internalType": "address",
          "name": "operator",
          "type": "address"
        }
      ],
      "name": "isApprovedForAll",
      "outputs": [
        {
          "internalType": "bool",
          "name": "",
          "type": "bool"
        }
      ],
      "stateMutability": "view",
      "type": "function"
    },
    {
      "inputs": [
        {
          "internalType": "uint256",
          "name": "",
          "type": "uint256"
        }
      ],
      "name": "marketItems",
      "outputs": [
        {
          "internalType": "uint256",
          "name": "tokenId",
          "type": "uint256"
        },
        {
          "internalType": "address payable",
          "name": "seller",
          "type": "address"
        },
        {
          "internalType": "uint256",
          "name": "price",
          "type": "uint256"
        }
      ],
      "stateMutability": "view",
      "type": "function"
    },
    {
      "inputs": [],
      "name": "metadataURI",
      "outputs": [
        {
          "internalType": "string",
          "name": "",
          "type": "string"
        }
      ],
      "stateMutability": "view",
      "type": "function"
    },
    {
      "inputs": [],
      "name": "name",
      "outputs": [
        {
          "internalType": "string",
          "name": "",
          "type": "string"
        }
      ],
      "stateMutability": "view",
      "type": "function"
    },
    {
      "inputs": [],
      "name": "owner",
      "outputs": [
        {
          "internalType": "address",
          "name": "",
          "type": "address"
        }
      ],
      "stateMutability": "view",
      "type": "function"
    },
    {
      "inputs": [
        {
          "internalType": "uint256",
          "name": "tokenId",
          "type": "uint256"
        }
      ],
      "name": "ownerOf",
      "outputs": [
        {
          "internalType": "address",
          "name": "",
          "type": "address"
        }
      ],
      "stateMutability": "view",
      "type": "function"
    },
    {
      "inputs": [
        {
          "internalType": "uint256",
          "name": "_tokenId",
          "type": "uint256"
        },
        {
          "internalType": "uint256",
          "name": "_price",
          "type": "uint256"
        }
      ],
      "name": "relistToken",
      "outputs": [],
      "stateMutability": "payable",
      "type": "function"
    },
    {
      "inputs": [],
      "name": "renounceOwnership",
      "outputs": [],
      "stateMutability": "nonpayable",
      "type": "function"
    },
    {
      "inputs": [],
      "name": "royaltyFee",
      "outputs": [
        {
          "internalType": "uint256",
          "name": "",
          "type": "uint256"
        }
      ],
      "stateMutability": "view",
      "type": "function"
    },
    {
      "inputs": [
        {
          "internalType": "address",
          "name": "from",
          "type": "address"
        },
        {
          "internalType": "address",
          "name": "to",
          "type": "address"
        },
        {
          "internalType": "uint256",
          "name": "tokenId",
          "type": "uint256"
        }
      ],
      "name": "safeTransferFrom",
      "outputs": [],
      "stateMutability": "nonpayable",
      "type": "function"
    },
    {
      "inputs": [
        {
          "internalType": "address",
          "name": "from",
          "type": "address"
        },
        {
          "internalType": "address",
          "name": "to",
          "type": "address"
        },
        {
          "internalType": "uint256",
          "name": "tokenId",
          "type": "uint256"
        },
        {
          "internalType": "bytes",
          "name": "_data",
          "type": "bytes"
        }
      ],
      "name": "safeTransferFrom",
      "outputs": [],
      "stateMutability": "nonpayable",
      "type": "function"
    },
    {
      "inputs": [
        {
          "internalType": "address",
          "name": "operator",
          "type": "address"
        },
        {
          "internalType": "bool",
          "name": "approved",
          "type": "bool"
        }
      ],
      "name": "setApprovalForAll",
      "outputs": [],
      "stateMutability": "nonpayable",
      "type": "function"
    },
    {
      "inputs": [
        {
          "internalType": "bytes4",
          "name": "interfaceId",
          "type": "bytes4"
        }
      ],
      "name": "supportsInterface",
      "outputs": [
        {
          "internalType": "bool",
          "name": "",
          "type": "bool"
        }
      ],
      "stateMutability": "view",
      "type": "function"
    },
    {
      "inputs": [],
      "name": "symbol",
      "outputs": [
        {
          "internalType": "string",
          "name": "",
          "type": "string"
        }
      ],
      "stateMutability": "view",
      "type": "function"
    },
    {
      "inputs": [
        {
          "internalType": "uint256",
          "name": "tokenId",
          "type": "uint256"
        }
      ],
      "name": "tokenURI",
      "outputs": [
        {
          "internalType": "string",
          "name": "",
          "type": "string"
        }
      ],
      "stateMutability": "view",
      "type": "function"
    },
    {
      "inputs": [
        {
          "internalType": "address",
          "name": "from",
          "type": "address"
        },
        {
          "internalType": "address",
          "name": "to",
          "type": "address"
        },
        {
          "internalType": "uint256",
          "name": "tokenId",
          "type": "uint256"
        }
      ],
      "name": "transferFrom",
      "outputs": [],
      "stateMutability": "nonpayable",
      "type": "function"
    },
    {
      "inputs": [
        {
          "internalType": "address",
          "name": "newOwner",
          "type": "address"
        }
      ],
      "name": "transferOwnership",
      "outputs": [],
      "stateMutability": "nonpayable",
      "type": "function"
    },
    {
      "inputs": [
        {
          "internalType": "uint256",
          "name": "_royaltyFee",
          "type": "uint256"
        }
      ],
      "name": "updateRoyaltyFee",
      "outputs": [],
      "stateMutability": "nonpayable",
      "type": "function"
    }
  ],
  "bytecode": "0x6080604052604051806080016040528060598152602001620044dc60599139600790805190602001906200003592919062000712565b506040518060400160405280600581526020017f2e6a736f6e000000000000000000000000000000000000000000000000000000815250600890805190602001906200008392919062000712565b5060405162004535380380620045358339818101604052810190620000a9919062000892565b6040518060400160405280600581526020017f41676f72610000000000000000000000000000000000000000000000000000008152506040518060400160405280600481526020017f414752410000000000000000000000000000000000000000000000000000000081525081600090805190602001906200012d92919062000712565b5080600190805190602001906200014692919062000712565b505050620001696200015d620003d460201b60201c565b620003dc60201b60201c565b3482825162000179919062000aeb565b1115620001bd576040517f08c379a0000000000000000000000000000000000000000000000000000000008152600401620001b490620009bf565b60405180910390fd5b81600a8190555082600960006101000a81548173ffffffffffffffffffffffffffffffffffffffff021916908373ffffffffffffffffffffffffffffffffffffffff16021790555060005b81518160ff161015620003ca576000828260ff168151811062000254577f4e487b7100000000000000000000000000000000000000000000000000000000600052603260045260246000fd5b6020026020010151116200029f576040517f08c379a0000000000000000000000000000000000000000000000000000000008152600401620002969062000a03565b60405180910390fd5b620002b4308260ff16620004a260201b60201c565b600b60405180606001604052808360ff1681526020013373ffffffffffffffffffffffffffffffffffffffff168152602001848460ff168151811062000323577f4e487b7100000000000000000000000000000000000000000000000000000000600052603260045260246000fd5b602002602001015181525090806001815401808255809150506001900390600052602060002090600302016000909190919091506000820151816000015560208201518160010160006101000a81548173ffffffffffffffffffffffffffffffffffffffff021916908373ffffffffffffffffffffffffffffffffffffffff1602179055506040820151816002015550508080620003c19062000c03565b91505062000208565b5050505062000dce565b600033905090565b6000600660009054906101000a900473ffffffffffffffffffffffffffffffffffffffff16905081600660006101000a81548173ffffffffffffffffffffffffffffffffffffffff021916908373ffffffffffffffffffffffffffffffffffffffff1602179055508173ffffffffffffffffffffffffffffffffffffffff168173ffffffffffffffffffffffffffffffffffffffff167f8be0079c531659141344cd1fd0a4f28419497f9722a3daafe3b4186f6b6457e060405160405180910390a35050565b600073ffffffffffffffffffffffffffffffffffffffff168273ffffffffffffffffffffffffffffffffffffffff16141562000515576040517f08c379a00000000000000000000000000000000000000000000000000000000081526004016200050c90620009e1565b60405180910390fd5b62000526816200069c60201b60201c565b1562000569576040517f08c379a000000000000000000000000000000000000000000000000000000000815260040162000560906200099d565b60405180910390fd5b6200057d600083836200070860201b60201c565b6001600360008473ffffffffffffffffffffffffffffffffffffffff1673ffffffffffffffffffffffffffffffffffffffff1681526020019081526020016000206000828254620005cf919062000a8e565b92505081905550816002600083815260200190815260200160002060006101000a81548173ffffffffffffffffffffffffffffffffffffffff021916908373ffffffffffffffffffffffffffffffffffffffff160217905550808273ffffffffffffffffffffffffffffffffffffffff16600073ffffffffffffffffffffffffffffffffffffffff167fddf252ad1be2c89b69c2b068fc378daa952ba7f163c4a11628f55a4df523b3ef60405160405180910390a462000698600083836200070d60201b60201c565b5050565b60008073ffffffffffffffffffffffffffffffffffffffff166002600084815260200190815260200160002060009054906101000a900473ffffffffffffffffffffffffffffffffffffffff1673ffffffffffffffffffffffffffffffffffffffff1614159050919050565b505050565b505050565b828054620007209062000b97565b90600052602060002090601f01602090048101928262000744576000855562000790565b82601f106200075f57805160ff191683800117855562000790565b8280016001018555821562000790579182015b828111156200078f57825182559160200191906001019062000772565b5b5090506200079f9190620007a3565b5090565b5b80821115620007be576000816000905550600101620007a4565b5090565b6000620007d9620007d38462000a4e565b62000a25565b90508083825260208201905082856020860282011115620007f957600080fd5b60005b858110156200082d57816200081288826200087b565b845260208401935060208301925050600181019050620007fc565b5050509392505050565b600081519050620008488162000d9a565b92915050565b600082601f8301126200086057600080fd5b815162000872848260208601620007c2565b91505092915050565b6000815190506200088c8162000db4565b92915050565b600080600060608486031215620008a857600080fd5b6000620008b88682870162000837565b9350506020620008cb868287016200087b565b925050604084015167ffffffffffffffff811115620008e957600080fd5b620008f7868287016200084e565b9150509250925092565b600062000910601c8362000a7d565b91506200091d8262000cd0565b602082019050919050565b60006200093760348362000a7d565b9150620009448262000cf9565b604082019050919050565b60006200095e60208362000a7d565b91506200096b8262000d48565b602082019050919050565b600062000985601c8362000a7d565b9150620009928262000d71565b602082019050919050565b60006020820190508181036000830152620009b88162000901565b9050919050565b60006020820190508181036000830152620009da8162000928565b9050919050565b60006020820190508181036000830152620009fc816200094f565b9050919050565b6000602082019050818103600083015262000a1e8162000976565b9050919050565b600062000a3162000a44565b905062000a3f828262000bcd565b919050565b6000604051905090565b600067ffffffffffffffff82111562000a6c5762000a6b62000c90565b5b602082029050602081019050919050565b600082825260208201905092915050565b600062000a9b8262000b80565b915062000aa88362000b80565b9250827fffffffffffffffffffffffffffffffffffffffffffffffffffffffffffffffff0382111562000ae05762000adf62000c32565b5b828201905092915050565b600062000af88262000b80565b915062000b058362000b80565b9250817fffffffffffffffffffffffffffffffffffffffffffffffffffffffffffffffff048311821515161562000b415762000b4062000c32565b5b828202905092915050565b600062000b598262000b60565b9050919050565b600073ffffffffffffffffffffffffffffffffffffffff82169050919050565b6000819050919050565b600060ff82169050919050565b6000600282049050600182168062000bb057607f821691505b6020821081141562000bc75762000bc662000c61565b5b50919050565b62000bd88262000cbf565b810181811067ffffffffffffffff8211171562000bfa5762000bf962000c90565b5b80604052505050565b600062000c108262000b8a565b915060ff82141562000c275762000c2662000c32565b5b600182019050919050565b7f4e487b7100000000000000000000000000000000000000000000000000000000600052601160045260246000fd5b7f4e487b7100000000000000000000000000000000000000000000000000000000600052602260045260246000fd5b7f4e487b7100000000000000000000000000000000000000000000000000000000600052604160045260246000fd5b6000601f19601f8301169050919050565b7f4552433732313a20746f6b656e20616c7265616479206d696e74656400000000600082015250565b7f6465706c6f796572206d7573742070617920726f79616c74792066656520666f60008201527f72206561636820746f6b656e206c697374656420000000000000000000000000602082015250565b7f4552433732313a206d696e7420746f20746865207a65726f2061646472657373600082015250565b7f5072696365206d7573742062652067726561746572207468616e203000000000600082015250565b62000da58162000b4c565b811462000db157600080fd5b50565b62000dbf8162000b80565b811462000dcb57600080fd5b50565b6136fe8062000dde6000396000f3fe6080604052600436106101665760003560e01c80636352211e116100d1578063a22cb4651161008a578063c668286211610064578063c668286214610510578063c87b56dd1461053b578063e985e9c514610578578063f2fde38b146105b557610166565b8063a22cb46514610493578063b88d4fde146104bc578063b8997a97146104e557610166565b80636352211e1461038157806370a08231146103be578063715018a6146103fb578063767dd076146104125780638da5cb5b1461043d57806395d89b411461046857610166565b80632d296bf1116101235780632d296bf11461028d57806342842e0e146102a957806343bc1612146102d25780634e83be47146102fd57806351f28e14146103265780635e6b3c181461036557610166565b806301ffc9a71461016b57806303ee438c146101a857806306fdde03146101d3578063081812fc146101fe578063095ea7b31461023b57806323b872dd14610264575b600080fd5b34801561017757600080fd5b50610192600480360381019061018d919061255c565b6105de565b60405161019f9190612af1565b60405180910390f35b3480156101b457600080fd5b506101bd6106c0565b6040516101ca9190612b0c565b60405180910390f35b3480156101df57600080fd5b506101e861074e565b6040516101f59190612b0c565b60405180910390f35b34801561020a57600080fd5b50610225600480360381019061022091906125ae565b6107e0565b6040516102329190612a3f565b60405180910390f35b34801561024757600080fd5b50610262600480360381019061025d9190612520565b610865565b005b34801561027057600080fd5b5061028b6004803603810190610286919061241a565b61097d565b005b6102a760048036038101906102a291906125ae565b6109dd565b005b3480156102b557600080fd5b506102d060048036038101906102cb919061241a565b610c7d565b005b3480156102de57600080fd5b506102e7610c9d565b6040516102f49190612a3f565b60405180910390f35b34801561030957600080fd5b50610324600480360381019061031f91906125ae565b610cc3565b005b34801561033257600080fd5b5061034d600480360381019061034891906125ae565b610d49565b60405161035c93929190612d69565b60405180910390f35b61037f600480360381019061037a91906125d7565b610da3565b005b34801561038d57600080fd5b506103a860048036038101906103a391906125ae565b610f62565b6040516103b59190612a3f565b60405180910390f35b3480156103ca57600080fd5b506103e560048036038101906103e091906123b5565b611014565b6040516103f29190612d4e565b60405180910390f35b34801561040757600080fd5b506104106110cc565b005b34801561041e57600080fd5b50610427611154565b6040516104349190612acf565b60405180910390f35b34801561044957600080fd5b506104526113bf565b60405161045f9190612a3f565b60405180910390f35b34801561047457600080fd5b5061047d6113e9565b60405161048a9190612b0c565b60405180910390f35b34801561049f57600080fd5b506104ba60048036038101906104b591906124e4565b61147b565b005b3480156104c857600080fd5b506104e360048036038101906104de9190612469565b611491565b005b3480156104f157600080fd5b506104fa6114f3565b6040516105079190612d4e565b60405180910390f35b34801561051c57600080fd5b506105256114f9565b6040516105329190612b0c565b60405180910390f35b34801561054757600080fd5b50610562600480360381019061055d91906125ae565b611587565b60405161056f9190612b0c565b60405180910390f35b34801561058457600080fd5b5061059f600480360381019061059a91906123de565b61162e565b6040516105ac9190612af1565b60405180910390f35b3480156105c157600080fd5b506105dc60048036038101906105d791906123b5565b6116c2565b005b60007f80ac58cd000000000000000000000000000000000000000000000000000000007bffffffffffffffffffffffffffffffffffffffffffffffffffffffff1916827bffffffffffffffffffffffffffffffffffffffffffffffffffffffff191614806106a957507f5b5e139f000000000000000000000000000000000000000000000000000000007bffffffffffffffffffffffffffffffffffffffffffffffffffffffff1916827bffffffffffffffffffffffffffffffffffffffffffffffffffffffff1916145b806106b957506106b8826117ba565b5b9050919050565b600780546106cd90612ff5565b80601f01602080910402602001604051908101604052809291908181526020018280546106f990612ff5565b80156107465780601f1061071b57610100808354040283529160200191610746565b820191906000526020600020905b81548152906001019060200180831161072957829003601f168201915b505050505081565b60606000805461075d90612ff5565b80601f016020809104026020016040519081016040528092919081815260200182805461078990612ff5565b80156107d65780601f106107ab576101008083540402835291602001916107d6565b820191906000526020600020905b8154815290600101906020018083116107b957829003601f168201915b5050505050905090565b60006107eb82611824565b61082a576040517f08c379a000000000000000000000000000000000000000000000000000000000815260040161082190612c8e565b60405180910390fd5b6004600083815260200190815260200160002060009054906101000a900473ffffffffffffffffffffffffffffffffffffffff169050919050565b600061087082610f62565b90508073ffffffffffffffffffffffffffffffffffffffff168373ffffffffffffffffffffffffffffffffffffffff1614156108e1576040517f08c379a00000000000000000000000000000000000000000000000000000000081526004016108d890612d0e565b60405180910390fd5b8073ffffffffffffffffffffffffffffffffffffffff16610900611890565b73ffffffffffffffffffffffffffffffffffffffff16148061092f575061092e81610929611890565b61162e565b5b61096e576040517f08c379a000000000000000000000000000000000000000000000000000000000815260040161096590612c2e565b60405180910390fd5b6109788383611898565b505050565b61098e610988611890565b82611951565b6109cd576040517f08c379a00000000000000000000000000000000000000000000000000000000081526004016109c490612d2e565b60405180910390fd5b6109d8838383611a2f565b505050565b6000600b8281548110610a19577f4e487b7100000000000000000000000000000000000000000000000000000000600052603260045260246000fd5b90600052602060002090600302016002015490506000600b8381548110610a69577f4e487b7100000000000000000000000000000000000000000000000000000000600052603260045260246000fd5b906000526020600020906003020160010160009054906101000a900473ffffffffffffffffffffffffffffffffffffffff169050813414610adf576040517f08c379a0000000000000000000000000000000000000000000000000000000008152600401610ad690612cae565b60405180910390fd5b6000600b8481548110610b1b577f4e487b7100000000000000000000000000000000000000000000000000000000600052603260045260246000fd5b906000526020600020906003020160010160006101000a81548173ffffffffffffffffffffffffffffffffffffffff021916908373ffffffffffffffffffffffffffffffffffffffff160217905550610b75303385611a2f565b600960009054906101000a900473ffffffffffffffffffffffffffffffffffffffff1673ffffffffffffffffffffffffffffffffffffffff166108fc600a549081150290604051600060405180830381858888f19350505050158015610bdf573d6000803e3d6000fd5b508073ffffffffffffffffffffffffffffffffffffffff166108fc349081150290604051600060405180830381858888f19350505050158015610c26573d6000803e3d6000fd5b508073ffffffffffffffffffffffffffffffffffffffff16837fd356b8423ef89ccba8e4f1dbeccc60b41825fd97d432f2e6a6dbd11ae6ecec113385604051610c70929190612aa6565b60405180910390a3505050565b610c9883838360405180602001604052806000815250611491565b505050565b600960009054906101000a900473ffffffffffffffffffffffffffffffffffffffff1681565b610ccb611890565b73ffffffffffffffffffffffffffffffffffffffff16610ce96113bf565b73ffffffffffffffffffffffffffffffffffffffff1614610d3f576040517f08c379a0000000000000000000000000000000000000000000000000000000008152600401610d3690612cce565b60405180910390fd5b80600a8190555050565b600b8181548110610d5957600080fd5b90600052602060002090600302016000915090508060000154908060010160009054906101000a900473ffffffffffffffffffffffffffffffffffffffff16908060020154905083565b600a543414610de7576040517f08c379a0000000000000000000000000000000000000000000000000000000008152600401610dde90612bae565b60405180910390fd5b60008111610e2a576040517f08c379a0000000000000000000000000000000000000000000000000000000008152600401610e2190612b2e565b60405180910390fd5b80600b8381548110610e65577f4e487b7100000000000000000000000000000000000000000000000000000000600052603260045260246000fd5b90600052602060002090600302016002018190555033600b8381548110610eb5577f4e487b7100000000000000000000000000000000000000000000000000000000600052603260045260246000fd5b906000526020600020906003020160010160006101000a81548173ffffffffffffffffffffffffffffffffffffffff021916908373ffffffffffffffffffffffffffffffffffffffff160217905550610f0f333084611a2f565b3373ffffffffffffffffffffffffffffffffffffffff16827fb2ba12d2566848b13548a3741edb565b69d3cbce7796959cd67431610207eb1383604051610f569190612d4e565b60405180910390a35050565b6000806002600084815260200190815260200160002060009054906101000a900473ffffffffffffffffffffffffffffffffffffffff169050600073ffffffffffffffffffffffffffffffffffffffff168173ffffffffffffffffffffffffffffffffffffffff16141561100b576040517f08c379a000000000000000000000000000000000000000000000000000000000815260040161100290612c6e565b60405180910390fd5b80915050919050565b60008073ffffffffffffffffffffffffffffffffffffffff168273ffffffffffffffffffffffffffffffffffffffff161415611085576040517f08c379a000000000000000000000000000000000000000000000000000000000815260040161107c90612c4e565b60405180910390fd5b600360008373ffffffffffffffffffffffffffffffffffffffff1673ffffffffffffffffffffffffffffffffffffffff168152602001908152602001600020549050919050565b6110d4611890565b73ffffffffffffffffffffffffffffffffffffffff166110f26113bf565b73ffffffffffffffffffffffffffffffffffffffff1614611148576040517f08c379a000000000000000000000000000000000000000000000000000000000815260040161113f90612cce565b60405180910390fd5b6111526000611c96565b565b6060600061116130611014565b905060008167ffffffffffffffff8111156111a5577f4e487b7100000000000000000000000000000000000000000000000000000000600052604160045260246000fd5b6040519080825280602002602001820160405280156111de57816020015b6111cb6122ad565b8152602001906001900390816111c35790505b509050600080600090505b600b805490508110156113b857600073ffffffffffffffffffffffffffffffffffffffff16600b8281548110611248577f4e487b7100000000000000000000000000000000000000000000000000000000600052603260045260246000fd5b906000526020600020906003020160010160009054906101000a900473ffffffffffffffffffffffffffffffffffffffff1673ffffffffffffffffffffffffffffffffffffffff16146113a557600b81815481106112cf577f4e487b7100000000000000000000000000000000000000000000000000000000600052603260045260246000fd5b9060005260206000209060030201604051806060016040529081600082015481526020016001820160009054906101000a900473ffffffffffffffffffffffffffffffffffffffff1673ffffffffffffffffffffffffffffffffffffffff1673ffffffffffffffffffffffffffffffffffffffff16815260200160028201548152505083838151811061138b577f4e487b7100000000000000000000000000000000000000000000000000000000600052603260045260246000fd5b602002602001018190525081806113a190613058565b9250505b80806113b090613058565b9150506111e9565b5050505090565b6000600660009054906101000a900473ffffffffffffffffffffffffffffffffffffffff16905090565b6060600180546113f890612ff5565b80601f016020809104026020016040519081016040528092919081815260200182805461142490612ff5565b80156114715780601f1061144657610100808354040283529160200191611471565b820191906000526020600020905b81548152906001019060200180831161145457829003601f168201915b5050505050905090565b61148d611486611890565b8383611d5c565b5050565b6114a261149c611890565b83611951565b6114e1576040517f08c379a00000000000000000000000000000000000000000000000000000000081526004016114d890612d2e565b60405180910390fd5b6114ed84848484611ec9565b50505050565b600a5481565b6008805461150690612ff5565b80601f016020809104026020016040519081016040528092919081815260200182805461153290612ff5565b801561157f5780601f106115545761010080835404028352916020019161157f565b820191906000526020600020905b81548152906001019060200180831161156257829003601f168201915b505050505081565b606061159282611824565b6115d1576040517f08c379a00000000000000000000000000000000000000000000000000000000081526004016115c890612cee565b60405180910390fd5b60006115db611f25565b905060008151116115fb5760405180602001604052806000815250611626565b8061160584611f3c565b604051602001611616929190612a1b565b6040516020818303038152906040525b915050919050565b6000600560008473ffffffffffffffffffffffffffffffffffffffff1673ffffffffffffffffffffffffffffffffffffffff16815260200190815260200160002060008373ffffffffffffffffffffffffffffffffffffffff1673ffffffffffffffffffffffffffffffffffffffff16815260200190815260200160002060009054906101000a900460ff16905092915050565b6116ca611890565b73ffffffffffffffffffffffffffffffffffffffff166116e86113bf565b73ffffffffffffffffffffffffffffffffffffffff161461173e576040517f08c379a000000000000000000000000000000000000000000000000000000000815260040161173590612cce565b60405180910390fd5b600073ffffffffffffffffffffffffffffffffffffffff168173ffffffffffffffffffffffffffffffffffffffff1614156117ae576040517f08c379a00000000000000000000000000000000000000000000000000000000081526004016117a590612b6e565b60405180910390fd5b6117b781611c96565b50565b60007f01ffc9a7000000000000000000000000000000000000000000000000000000007bffffffffffffffffffffffffffffffffffffffffffffffffffffffff1916827bffffffffffffffffffffffffffffffffffffffffffffffffffffffff1916149050919050565b60008073ffffffffffffffffffffffffffffffffffffffff166002600084815260200190815260200160002060009054906101000a900473ffffffffffffffffffffffffffffffffffffffff1673ffffffffffffffffffffffffffffffffffffffff1614159050919050565b600033905090565b816004600083815260200190815260200160002060006101000a81548173ffffffffffffffffffffffffffffffffffffffff021916908373ffffffffffffffffffffffffffffffffffffffff160217905550808273ffffffffffffffffffffffffffffffffffffffff1661190b83610f62565b73ffffffffffffffffffffffffffffffffffffffff167f8c5be1e5ebec7d5bd14f71427d1e84f3dd0314c0f7b2291e5b200ac8c7c3b92560405160405180910390a45050565b600061195c82611824565b61199b576040517f08c379a000000000000000000000000000000000000000000000000000000000815260040161199290612c0e565b60405180910390fd5b60006119a683610f62565b90508073ffffffffffffffffffffffffffffffffffffffff168473ffffffffffffffffffffffffffffffffffffffff161480611a1557508373ffffffffffffffffffffffffffffffffffffffff166119fd846107e0565b73ffffffffffffffffffffffffffffffffffffffff16145b80611a265750611a25818561162e565b5b91505092915050565b8273ffffffffffffffffffffffffffffffffffffffff16611a4f82610f62565b73ffffffffffffffffffffffffffffffffffffffff1614611aa5576040517f08c379a0000000000000000000000000000000000000000000000000000000008152600401611a9c90612b8e565b60405180910390fd5b600073ffffffffffffffffffffffffffffffffffffffff168273ffffffffffffffffffffffffffffffffffffffff161415611b15576040517f08c379a0000000000000000000000000000000000000000000000000000000008152600401611b0c90612bce565b60405180910390fd5b611b208383836120e9565b611b2b600082611898565b6001600360008573ffffffffffffffffffffffffffffffffffffffff1673ffffffffffffffffffffffffffffffffffffffff1681526020019081526020016000206000828254611b7b9190612ef9565b925050819055506001600360008473ffffffffffffffffffffffffffffffffffffffff1673ffffffffffffffffffffffffffffffffffffffff1681526020019081526020016000206000828254611bd29190612e72565b92505081905550816002600083815260200190815260200160002060006101000a81548173ffffffffffffffffffffffffffffffffffffffff021916908373ffffffffffffffffffffffffffffffffffffffff160217905550808273ffffffffffffffffffffffffffffffffffffffff168473ffffffffffffffffffffffffffffffffffffffff167fddf252ad1be2c89b69c2b068fc378daa952ba7f163c4a11628f55a4df523b3ef60405160405180910390a4611c918383836120ee565b505050565b6000600660009054906101000a900473ffffffffffffffffffffffffffffffffffffffff16905081600660006101000a81548173ffffffffffffffffffffffffffffffffffffffff021916908373ffffffffffffffffffffffffffffffffffffffff1602179055508173ffffffffffffffffffffffffffffffffffffffff168173ffffffffffffffffffffffffffffffffffffffff167f8be0079c531659141344cd1fd0a4f28419497f9722a3daafe3b4186f6b6457e060405160405180910390a35050565b8173ffffffffffffffffffffffffffffffffffffffff168373ffffffffffffffffffffffffffffffffffffffff161415611dcb576040517f08c379a0000000000000000000000000000000000000000000000000000000008152600401611dc290612bee565b60405180910390fd5b80600560008573ffffffffffffffffffffffffffffffffffffffff1673ffffffffffffffffffffffffffffffffffffffff16815260200190815260200160002060008473ffffffffffffffffffffffffffffffffffffffff1673ffffffffffffffffffffffffffffffffffffffff16815260200190815260200160002060006101000a81548160ff0219169083151502179055508173ffffffffffffffffffffffffffffffffffffffff168373ffffffffffffffffffffffffffffffffffffffff167f17307eab39ab6107e8899845ad3d59bd9653f200f220920489ca2b5937696c3183604051611ebc9190612af1565b60405180910390a3505050565b611ed4848484611a2f565b611ee0848484846120f3565b611f1f576040517f08c379a0000000000000000000000000000000000000000000000000000000008152600401611f1690612b4e565b60405180910390fd5b50505050565b606060405180602001604052806000815250905090565b60606000821415611f84576040518060400160405280600181526020017f300000000000000000000000000000000000000000000000000000000000000081525090506120e4565b600082905060005b60008214611fb6578080611f9f90613058565b915050600a82611faf9190612ec8565b9150611f8c565b60008167ffffffffffffffff811115611ff8577f4e487b7100000000000000000000000000000000000000000000000000000000600052604160045260246000fd5b6040519080825280601f01601f19166020018201604052801561202a5781602001600182028036833780820191505090505b5090505b600085146120dd576001826120439190612ef9565b9150600a8561205291906130a1565b603061205e9190612e72565b60f81b81838151811061209a577f4e487b7100000000000000000000000000000000000000000000000000000000600052603260045260246000fd5b60200101907effffffffffffffffffffffffffffffffffffffffffffffffffffffffffffff1916908160001a905350600a856120d69190612ec8565b945061202e565b8093505050505b919050565b505050565b505050565b60006121148473ffffffffffffffffffffffffffffffffffffffff1661228a565b1561227d578373ffffffffffffffffffffffffffffffffffffffff1663150b7a0261213d611890565b8786866040518563ffffffff1660e01b815260040161215f9493929190612a5a565b602060405180830381600087803b15801561217957600080fd5b505af19250505080156121aa57506040513d601f19601f820116820180604052508101906121a79190612585565b60015b61222d573d80600081146121da576040519150601f19603f3d011682016040523d82523d6000602084013e6121df565b606091505b50600081511415612225576040517f08c379a000000000000000000000000000000000000000000000000000000000815260040161221c90612b4e565b60405180910390fd5b805181602001fd5b63150b7a0260e01b7bffffffffffffffffffffffffffffffffffffffffffffffffffffffff1916817bffffffffffffffffffffffffffffffffffffffffffffffffffffffff191614915050612282565b600190505b949350505050565b6000808273ffffffffffffffffffffffffffffffffffffffff163b119050919050565b604051806060016040528060008152602001600073ffffffffffffffffffffffffffffffffffffffff168152602001600081525090565b60006122f76122f284612dc5565b612da0565b90508281526020810184848401111561230f57600080fd5b61231a848285612fb3565b509392505050565b6000813590506123318161366c565b92915050565b60008135905061234681613683565b92915050565b60008135905061235b8161369a565b92915050565b6000815190506123708161369a565b92915050565b600082601f83011261238757600080fd5b81356123978482602086016122e4565b91505092915050565b6000813590506123af816136b1565b92915050565b6000602082840312156123c757600080fd5b60006123d584828501612322565b91505092915050565b600080604083850312156123f157600080fd5b60006123ff85828601612322565b925050602061241085828601612322565b9150509250929050565b60008060006060848603121561242f57600080fd5b600061243d86828701612322565b935050602061244e86828701612322565b925050604061245f868287016123a0565b9150509250925092565b6000806000806080858703121561247f57600080fd5b600061248d87828801612322565b945050602061249e87828801612322565b93505060406124af878288016123a0565b925050606085013567ffffffffffffffff8111156124cc57600080fd5b6124d887828801612376565b91505092959194509250565b600080604083850312156124f757600080fd5b600061250585828601612322565b925050602061251685828601612337565b9150509250929050565b6000806040838503121561253357600080fd5b600061254185828601612322565b9250506020612552858286016123a0565b9150509250929050565b60006020828403121561256e57600080fd5b600061257c8482850161234c565b91505092915050565b60006020828403121561259757600080fd5b60006125a584828501612361565b91505092915050565b6000602082840312156125c057600080fd5b60006125ce848285016123a0565b91505092915050565b600080604083850312156125ea57600080fd5b60006125f8858286016123a0565b9250506020612609858286016123a0565b9150509250929050565b600061261f83836129bb565b60608301905092915050565b61263481612f3f565b82525050565b61264381612f3f565b82525050565b61265281612f2d565b82525050565b600061266382612e06565b61266d8185612e34565b935061267883612df6565b8060005b838110156126a95781516126908882612613565b975061269b83612e27565b92505060018101905061267c565b5085935050505092915050565b6126bf81612f51565b82525050565b60006126d082612e11565b6126da8185612e45565b93506126ea818560208601612fc2565b6126f38161318e565b840191505092915050565b600061270982612e1c565b6127138185612e56565b9350612723818560208601612fc2565b61272c8161318e565b840191505092915050565b600061274282612e1c565b61274c8185612e67565b935061275c818560208601612fc2565b80840191505092915050565b6000612775601f83612e56565b91506127808261319f565b602082019050919050565b6000612798603283612e56565b91506127a3826131c8565b604082019050919050565b60006127bb602683612e56565b91506127c682613217565b604082019050919050565b60006127de602583612e56565b91506127e982613266565b604082019050919050565b6000612801601083612e56565b915061280c826132b5565b602082019050919050565b6000612824602483612e56565b915061282f826132de565b604082019050919050565b6000612847601983612e56565b91506128528261332d565b602082019050919050565b600061286a602c83612e56565b915061287582613356565b604082019050919050565b600061288d603883612e56565b9150612898826133a5565b604082019050919050565b60006128b0602a83612e56565b91506128bb826133f4565b604082019050919050565b60006128d3602983612e56565b91506128de82613443565b604082019050919050565b60006128f6602c83612e56565b915061290182613492565b604082019050919050565b6000612919604183612e56565b9150612924826134e1565b606082019050919050565b600061293c602083612e56565b915061294782613556565b602082019050919050565b600061295f602f83612e56565b915061296a8261357f565b604082019050919050565b6000612982602183612e56565b915061298d826135ce565b604082019050919050565b60006129a5603183612e56565b91506129b08261361d565b604082019050919050565b6060820160008201516129d160008501826129fd565b5060208201516129e4602085018261262b565b5060408201516129f760408501826129fd565b50505050565b612a0681612fa9565b82525050565b612a1581612fa9565b82525050565b6000612a278285612737565b9150612a338284612737565b91508190509392505050565b6000602082019050612a546000830184612649565b92915050565b6000608082019050612a6f6000830187612649565b612a7c6020830186612649565b612a896040830185612a0c565b8181036060830152612a9b81846126c5565b905095945050505050565b6000604082019050612abb6000830185612649565b612ac86020830184612a0c565b9392505050565b60006020820190508181036000830152612ae98184612658565b905092915050565b6000602082019050612b0660008301846126b6565b92915050565b60006020820190508181036000830152612b2681846126fe565b905092915050565b60006020820190508181036000830152612b4781612768565b9050919050565b60006020820190508181036000830152612b678161278b565b9050919050565b60006020820190508181036000830152612b87816127ae565b9050919050565b60006020820190508181036000830152612ba7816127d1565b9050919050565b60006020820190508181036000830152612bc7816127f4565b9050919050565b60006020820190508181036000830152612be781612817565b9050919050565b60006020820190508181036000830152612c078161283a565b9050919050565b60006020820190508181036000830152612c278161285d565b9050919050565b60006020820190508181036000830152612c4781612880565b9050919050565b60006020820190508181036000830152612c67816128a3565b9050919050565b60006020820190508181036000830152612c87816128c6565b9050919050565b60006020820190508181036000830152612ca7816128e9565b9050919050565b60006020820190508181036000830152612cc78161290c565b9050919050565b60006020820190508181036000830152612ce78161292f565b9050919050565b60006020820190508181036000830152612d0781612952565b9050919050565b60006020820190508181036000830152612d2781612975565b9050919050565b60006020820190508181036000830152612d4781612998565b9050919050565b6000602082019050612d636000830184612a0c565b92915050565b6000606082019050612d7e6000830186612a0c565b612d8b602083018561263a565b612d986040830184612a0c565b949350505050565b6000612daa612dbb565b9050612db68282613027565b919050565b6000604051905090565b600067ffffffffffffffff821115612de057612ddf61315f565b5b612de98261318e565b9050602081019050919050565b6000819050602082019050919050565b600081519050919050565b600081519050919050565b600081519050919050565b6000602082019050919050565b600082825260208201905092915050565b600082825260208201905092915050565b600082825260208201905092915050565b600081905092915050565b6000612e7d82612fa9565b9150612e8883612fa9565b9250827fffffffffffffffffffffffffffffffffffffffffffffffffffffffffffffffff03821115612ebd57612ebc6130d2565b5b828201905092915050565b6000612ed382612fa9565b9150612ede83612fa9565b925082612eee57612eed613101565b5b828204905092915050565b6000612f0482612fa9565b9150612f0f83612fa9565b925082821015612f2257612f216130d2565b5b828203905092915050565b6000612f3882612f89565b9050919050565b6000612f4a82612f89565b9050919050565b60008115159050919050565b60007fffffffff0000000000000000000000000000000000000000000000000000000082169050919050565b600073ffffffffffffffffffffffffffffffffffffffff82169050919050565b6000819050919050565b82818337600083830152505050565b60005b83811015612fe0578082015181840152602081019050612fc5565b83811115612fef576000848401525b50505050565b6000600282049050600182168061300d57607f821691505b6020821081141561302157613020613130565b5b50919050565b6130308261318e565b810181811067ffffffffffffffff8211171561304f5761304e61315f565b5b80604052505050565b600061306382612fa9565b91507fffffffffffffffffffffffffffffffffffffffffffffffffffffffffffffffff821415613096576130956130d2565b5b600182019050919050565b60006130ac82612fa9565b91506130b783612fa9565b9250826130c7576130c6613101565b5b828206905092915050565b7f4e487b7100000000000000000000000000000000000000000000000000000000600052601160045260246000fd5b7f4e487b7100000000000000000000000000000000000000000000000000000000600052601260045260246000fd5b7f4e487b7100000000000000000000000000000000000000000000000000000000600052602260045260246000fd5b7f4e487b7100000000000000000000000000000000000000000000000000000000600052604160045260246000fd5b6000601f19601f8301169050919050565b7f5072696365206d7573742062652067726561746572207468616e207a65726f00600082015250565b7f4552433732313a207472616e7366657220746f206e6f6e20455243373231526560008201527f63656976657220696d706c656d656e7465720000000000000000000000000000602082015250565b7f4f776e61626c653a206e6577206f776e657220697320746865207a65726f206160008201527f6464726573730000000000000000000000000000000000000000000000000000602082015250565b7f4552433732313a207472616e736665722066726f6d20696e636f72726563742060008201527f6f776e6572000000000000000000000000000000000000000000000000000000602082015250565b7f4d7573742070617920726f79616c747900000000000000000000000000000000600082015250565b7f4552433732313a207472616e7366657220746f20746865207a65726f2061646460008201527f7265737300000000000000000000000000000000000000000000000000000000602082015250565b7f4552433732313a20617070726f766520746f2063616c6c657200000000000000600082015250565b7f4552433732313a206f70657261746f7220717565727920666f72206e6f6e657860008201527f697374656e7420746f6b656e0000000000000000000000000000000000000000602082015250565b7f4552433732313a20617070726f76652063616c6c6572206973206e6f74206f7760008201527f6e6572206e6f7220617070726f76656420666f7220616c6c0000000000000000602082015250565b7f4552433732313a2062616c616e636520717565727920666f7220746865207a6560008201527f726f206164647265737300000000000000000000000000000000000000000000602082015250565b7f4552433732313a206f776e657220717565727920666f72206e6f6e657869737460008201527f656e7420746f6b656e0000000000000000000000000000000000000000000000602082015250565b7f4552433732313a20617070726f76656420717565727920666f72206e6f6e657860008201527f697374656e7420746f6b656e0000000000000000000000000000000000000000602082015250565b7f506c656173652073656e64207468652061736b696e6720707269636520696e2060008201527f6f7264657220746f20636f6d706c65746520746865207472616e73616374696f60208201527f6e00000000000000000000000000000000000000000000000000000000000000604082015250565b7f4f776e61626c653a2063616c6c6572206973206e6f7420746865206f776e6572600082015250565b7f4552433732314d657461646174613a2055524920717565727920666f72206e6f60008201527f6e6578697374656e7420746f6b656e0000000000000000000000000000000000602082015250565b7f4552433732313a20617070726f76616c20746f2063757272656e74206f776e6560008201527f7200000000000000000000000000000000000000000000000000000000000000602082015250565b7f4552433732313a207472616e736665722063616c6c6572206973206e6f74206f60008201527f776e6572206e6f7220617070726f766564000000000000000000000000000000602082015250565b61367581612f2d565b811461368057600080fd5b50565b61368c81612f51565b811461369757600080fd5b50565b6136a381612f5d565b81146136ae57600080fd5b50565b6136ba81612fa9565b81146136c557600080fd5b5056fea264697066735822122047de83355b5006061a45044b4255a1495820ac551ca6287200da28bc341b80db64736f6c6343000804003368747470733a2f2f62616679626569687a6c6e707637657135693575746b6d6337786575623367767a737a6a697175366a763572706264686934326e696566623664752e697066732e6e667473746f726167652e6c696e6b2f",
  "linkReferences": {},
  "deployedLinkReferences": {}
}