{
  "_format": "hh-sol-artifact-1",
  "contractName": "Agora",
  "sourceName": "src/backend/contracts/Agora_contracts.sol",
  "abi": [
    {
      "anonymous": false,
      "inputs": [
        {
          "indexed": true,
          "internalType": "address",
          "name": "owner",
          "type": "address"
        },
        {
          "indexed": true,
          "internalType": "address",
          "name": "approved",
          "type": "address"
        },
        {
          "indexed": true,
          "internalType": "uint256",
          "name": "tokenId",
          "type": "uint256"
        }
      ],
      "name": "Approval",
      "type": "event"
    },
    {
      "anonymous": false,
      "inputs": [
        {
          "indexed": true,
          "internalType": "address",
          "name": "owner",
          "type": "address"
        },
        {
          "indexed": true,
          "internalType": "address",
          "name": "operator",
          "type": "address"
        },
        {
          "indexed": false,
          "internalType": "bool",
          "name": "approved",
          "type": "bool"
        }
      ],
      "name": "ApprovalForAll",
      "type": "event"
    },
    {
      "anonymous": false,
      "inputs": [
        {
          "indexed": true,
          "internalType": "address",
          "name": "previousOwner",
          "type": "address"
        },
        {
          "indexed": true,
          "internalType": "address",
          "name": "newOwner",
          "type": "address"
        }
      ],
      "name": "OwnershipTransferred",
      "type": "event"
    },
    {
      "anonymous": false,
      "inputs": [
        {
          "indexed": true,
          "internalType": "address",
          "name": "from",
          "type": "address"
        },
        {
          "indexed": true,
          "internalType": "address",
          "name": "to",
          "type": "address"
        },
        {
          "indexed": true,
          "internalType": "uint256",
          "name": "tokenId",
          "type": "uint256"
        }
      ],
      "name": "Transfer",
      "type": "event"
    },
    {
      "inputs": [
        {
          "internalType": "address",
          "name": "to",
          "type": "address"
        },
        {
          "internalType": "uint256",
          "name": "tokenId",
          "type": "uint256"
        }
      ],
      "name": "approve",
      "outputs": [],
      "stateMutability": "nonpayable",
      "type": "function"
    },
    {
      "inputs": [],
      "name": "artist",
      "outputs": [
        {
          "internalType": "address",
          "name": "",
          "type": "address"
        }
      ],
      "stateMutability": "view",
      "type": "function"
    },
    {
      "inputs": [
        {
          "internalType": "address",
          "name": "owner",
          "type": "address"
        }
      ],
      "name": "balanceOf",
      "outputs": [
        {
          "internalType": "uint256",
          "name": "",
          "type": "uint256"
        }
      ],
      "stateMutability": "view",
      "type": "function"
    },
    {
      "inputs": [],
      "name": "baseExtension",
      "outputs": [
        {
          "internalType": "string",
          "name": "",
          "type": "string"
        }
      ],
      "stateMutability": "view",
      "type": "function"
    },
    {
      "inputs": [],
      "name": "baseURI",
      "outputs": [
        {
          "internalType": "string",
          "name": "",
          "type": "string"
        }
      ],
      "stateMutability": "view",
      "type": "function"
    },
    {
      "inputs": [
        {
          "internalType": "uint256",
          "name": "tokenId",
          "type": "uint256"
        }
      ],
      "name": "getApproved",
      "outputs": [
        {
          "internalType": "address",
          "name": "",
          "type": "address"
        }
      ],
      "stateMutability": "view",
      "type": "function"
    },
    {
      "inputs": [
        {
          "internalType": "address",
          "name": "owner",
          "type": "address"
        },
        {
          "internalType": "address",
          "name": "operator",
          "type": "address"
        }
      ],
      "name": "isApprovedForAll",
      "outputs": [
        {
          "internalType": "bool",
          "name": "",
          "type": "bool"
        }
      ],
      "stateMutability": "view",
      "type": "function"
    },
    {
      "inputs": [],
      "name": "name",
      "outputs": [
        {
          "internalType": "string",
          "name": "",
          "type": "string"
        }
      ],
      "stateMutability": "view",
      "type": "function"
    },
    {
      "inputs": [],
      "name": "owner",
      "outputs": [
        {
          "internalType": "address",
          "name": "",
          "type": "address"
        }
      ],
      "stateMutability": "view",
      "type": "function"
    },
    {
      "inputs": [
        {
          "internalType": "uint256",
          "name": "tokenId",
          "type": "uint256"
        }
      ],
      "name": "ownerOf",
      "outputs": [
        {
          "internalType": "address",
          "name": "",
          "type": "address"
        }
      ],
      "stateMutability": "view",
      "type": "function"
    },
    {
      "inputs": [],
      "name": "renounceOwnership",
      "outputs": [],
      "stateMutability": "nonpayable",
      "type": "function"
    },
    {
      "inputs": [],
      "name": "royaltyFee",
      "outputs": [
        {
          "internalType": "uint256",
          "name": "",
          "type": "uint256"
        }
      ],
      "stateMutability": "view",
      "type": "function"
    },
    {
      "inputs": [
        {
          "internalType": "address",
          "name": "from",
          "type": "address"
        },
        {
          "internalType": "address",
          "name": "to",
          "type": "address"
        },
        {
          "internalType": "uint256",
          "name": "tokenId",
          "type": "uint256"
        }
      ],
      "name": "safeTransferFrom",
      "outputs": [],
      "stateMutability": "nonpayable",
      "type": "function"
    },
    {
      "inputs": [
        {
          "internalType": "address",
          "name": "from",
          "type": "address"
        },
        {
          "internalType": "address",
          "name": "to",
          "type": "address"
        },
        {
          "internalType": "uint256",
          "name": "tokenId",
          "type": "uint256"
        },
        {
          "internalType": "bytes",
          "name": "_data",
          "type": "bytes"
        }
      ],
      "name": "safeTransferFrom",
      "outputs": [],
      "stateMutability": "nonpayable",
      "type": "function"
    },
    {
      "inputs": [
        {
          "internalType": "address",
          "name": "operator",
          "type": "address"
        },
        {
          "internalType": "bool",
          "name": "approved",
          "type": "bool"
        }
      ],
      "name": "setApprovalForAll",
      "outputs": [],
      "stateMutability": "nonpayable",
      "type": "function"
    },
    {
      "inputs": [
        {
          "internalType": "bytes4",
          "name": "interfaceId",
          "type": "bytes4"
        }
      ],
      "name": "supportsInterface",
      "outputs": [
        {
          "internalType": "bool",
          "name": "",
          "type": "bool"
        }
      ],
      "stateMutability": "view",
      "type": "function"
    },
    {
      "inputs": [],
      "name": "symbol",
      "outputs": [
        {
          "internalType": "string",
          "name": "",
          "type": "string"
        }
      ],
      "stateMutability": "view",
      "type": "function"
    },
    {
      "inputs": [
        {
          "internalType": "uint256",
          "name": "tokenId",
          "type": "uint256"
        }
      ],
      "name": "tokenURI",
      "outputs": [
        {
          "internalType": "string",
          "name": "",
          "type": "string"
        }
      ],
      "stateMutability": "view",
      "type": "function"
    },
    {
      "inputs": [
        {
          "internalType": "address",
          "name": "from",
          "type": "address"
        },
        {
          "internalType": "address",
          "name": "to",
          "type": "address"
        },
        {
          "internalType": "uint256",
          "name": "tokenId",
          "type": "uint256"
        }
      ],
      "name": "transferFrom",
      "outputs": [],
      "stateMutability": "nonpayable",
      "type": "function"
    },
    {
      "inputs": [
        {
          "internalType": "address",
          "name": "newOwner",
          "type": "address"
        }
      ],
      "name": "transferOwnership",
      "outputs": [],
      "stateMutability": "nonpayable",
      "type": "function"
    }
  ],
  "bytecode": "0x608060405260405180608001604052806059815260200162002ce160599139600790805190602001906200003592919062000226565b506040518060400160405280600581526020017f2e6a736f6e000000000000000000000000000000000000000000000000000000815250600890805190602001906200008392919062000226565b503480156200009157600080fd5b506040518060400160405280600581526020017f41676f72610000000000000000000000000000000000000000000000000000008152506040518060400160405280600481526020017f414752410000000000000000000000000000000000000000000000000000000081525081600090805190602001906200011692919062000226565b5080600190805190602001906200012f92919062000226565b50505062000152620001466200015860201b60201c565b6200016060201b60201c565b6200033b565b600033905090565b6000600660009054906101000a900473ffffffffffffffffffffffffffffffffffffffff16905081600660006101000a81548173ffffffffffffffffffffffffffffffffffffffff021916908373ffffffffffffffffffffffffffffffffffffffff1602179055508173ffffffffffffffffffffffffffffffffffffffff168173ffffffffffffffffffffffffffffffffffffffff167f8be0079c531659141344cd1fd0a4f28419497f9722a3daafe3b4186f6b6457e060405160405180910390a35050565b8280546200023490620002d6565b90600052602060002090601f016020900481019282620002585760008555620002a4565b82601f106200027357805160ff1916838001178555620002a4565b82800160010185558215620002a4579182015b82811115620002a357825182559160200191906001019062000286565b5b509050620002b39190620002b7565b5090565b5b80821115620002d2576000816000905550600101620002b8565b5090565b60006002820490506001821680620002ef57607f821691505b602082108114156200030657620003056200030c565b5b50919050565b7f4e487b7100000000000000000000000000000000000000000000000000000000600052602260045260246000fd5b612996806200034b6000396000f3fe608060405234801561001057600080fd5b506004361061012c5760003560e01c8063715018a6116100ad578063b8997a9711610071578063b8997a971461031d578063c66828621461033b578063c87b56dd14610359578063e985e9c514610389578063f2fde38b146103b95761012c565b8063715018a61461029f5780638da5cb5b146102a957806395d89b41146102c7578063a22cb465146102e5578063b88d4fde146103015761012c565b806342842e0e116100f457806342842e0e146101e757806343bc1612146102035780636352211e146102215780636c0360eb1461025157806370a082311461026f5761012c565b806301ffc9a71461013157806306fdde0314610161578063081812fc1461017f578063095ea7b3146101af57806323b872dd146101cb575b600080fd5b61014b60048036038101906101469190611b72565b6103d5565b6040516101589190611f32565b60405180910390f35b6101696104b7565b6040516101769190611f4d565b60405180910390f35b61019960048036038101906101949190611bc4565b610549565b6040516101a69190611ecb565b60405180910390f35b6101c960048036038101906101c49190611b36565b6105ce565b005b6101e560048036038101906101e09190611a30565b6106e6565b005b61020160048036038101906101fc9190611a30565b610746565b005b61020b610766565b6040516102189190611ecb565b60405180910390f35b61023b60048036038101906102369190611bc4565b61078c565b6040516102489190611ecb565b60405180910390f35b61025961083e565b6040516102669190611f4d565b60405180910390f35b610289600480360381019061028491906119cb565b6108cc565b604051610296919061212f565b60405180910390f35b6102a7610984565b005b6102b1610a0c565b6040516102be9190611ecb565b60405180910390f35b6102cf610a36565b6040516102dc9190611f4d565b60405180910390f35b6102ff60048036038101906102fa9190611afa565b610ac8565b005b61031b60048036038101906103169190611a7f565b610ade565b005b610325610b40565b604051610332919061212f565b60405180910390f35b610343610b46565b6040516103509190611f4d565b60405180910390f35b610373600480360381019061036e9190611bc4565b610bd4565b6040516103809190611f4d565b60405180910390f35b6103a3600480360381019061039e91906119f4565b610c7b565b6040516103b09190611f32565b60405180910390f35b6103d360048036038101906103ce91906119cb565b610d0f565b005b60007f80ac58cd000000000000000000000000000000000000000000000000000000007bffffffffffffffffffffffffffffffffffffffffffffffffffffffff1916827bffffffffffffffffffffffffffffffffffffffffffffffffffffffff191614806104a057507f5b5e139f000000000000000000000000000000000000000000000000000000007bffffffffffffffffffffffffffffffffffffffffffffffffffffffff1916827bffffffffffffffffffffffffffffffffffffffffffffffffffffffff1916145b806104b057506104af82610e07565b5b9050919050565b6060600080546104c690612354565b80601f01602080910402602001604051908101604052809291908181526020018280546104f290612354565b801561053f5780601f106105145761010080835404028352916020019161053f565b820191906000526020600020905b81548152906001019060200180831161052257829003601f168201915b5050505050905090565b600061055482610e71565b610593576040517f08c379a000000000000000000000000000000000000000000000000000000000815260040161058a9061208f565b60405180910390fd5b6004600083815260200190815260200160002060009054906101000a900473ffffffffffffffffffffffffffffffffffffffff169050919050565b60006105d98261078c565b90508073ffffffffffffffffffffffffffffffffffffffff168373ffffffffffffffffffffffffffffffffffffffff16141561064a576040517f08c379a0000000000000000000000000000000000000000000000000000000008152600401610641906120ef565b60405180910390fd5b8073ffffffffffffffffffffffffffffffffffffffff16610669610edd565b73ffffffffffffffffffffffffffffffffffffffff161480610698575061069781610692610edd565b610c7b565b5b6106d7576040517f08c379a00000000000000000000000000000000000000000000000000000000081526004016106ce9061202f565b60405180910390fd5b6106e18383610ee5565b505050565b6106f76106f1610edd565b82610f9e565b610736576040517f08c379a000000000000000000000000000000000000000000000000000000000815260040161072d9061210f565b60405180910390fd5b61074183838361107c565b505050565b61076183838360405180602001604052806000815250610ade565b505050565b600960009054906101000a900473ffffffffffffffffffffffffffffffffffffffff1681565b6000806002600084815260200190815260200160002060009054906101000a900473ffffffffffffffffffffffffffffffffffffffff169050600073ffffffffffffffffffffffffffffffffffffffff168173ffffffffffffffffffffffffffffffffffffffff161415610835576040517f08c379a000000000000000000000000000000000000000000000000000000000815260040161082c9061206f565b60405180910390fd5b80915050919050565b6007805461084b90612354565b80601f016020809104026020016040519081016040528092919081815260200182805461087790612354565b80156108c45780601f10610899576101008083540402835291602001916108c4565b820191906000526020600020905b8154815290600101906020018083116108a757829003601f168201915b505050505081565b60008073ffffffffffffffffffffffffffffffffffffffff168273ffffffffffffffffffffffffffffffffffffffff16141561093d576040517f08c379a00000000000000000000000000000000000000000000000000000000081526004016109349061204f565b60405180910390fd5b600360008373ffffffffffffffffffffffffffffffffffffffff1673ffffffffffffffffffffffffffffffffffffffff168152602001908152602001600020549050919050565b61098c610edd565b73ffffffffffffffffffffffffffffffffffffffff166109aa610a0c565b73ffffffffffffffffffffffffffffffffffffffff1614610a00576040517f08c379a00000000000000000000000000000000000000000000000000000000081526004016109f7906120af565b60405180910390fd5b610a0a60006112e3565b565b6000600660009054906101000a900473ffffffffffffffffffffffffffffffffffffffff16905090565b606060018054610a4590612354565b80601f0160208091040260200160405190810160405280929190818152602001828054610a7190612354565b8015610abe5780601f10610a9357610100808354040283529160200191610abe565b820191906000526020600020905b815481529060010190602001808311610aa157829003601f168201915b5050505050905090565b610ada610ad3610edd565b83836113a9565b5050565b610aef610ae9610edd565b83610f9e565b610b2e576040517f08c379a0000000000000000000000000000000000000000000000000000000008152600401610b259061210f565b60405180910390fd5b610b3a84848484611516565b50505050565b600a5481565b60088054610b5390612354565b80601f0160208091040260200160405190810160405280929190818152602001828054610b7f90612354565b8015610bcc5780601f10610ba157610100808354040283529160200191610bcc565b820191906000526020600020905b815481529060010190602001808311610baf57829003601f168201915b505050505081565b6060610bdf82610e71565b610c1e576040517f08c379a0000000000000000000000000000000000000000000000000000000008152600401610c15906120cf565b60405180910390fd5b6000610c28611572565b90506000815111610c485760405180602001604052806000815250610c73565b80610c5284611589565b604051602001610c63929190611ea7565b6040516020818303038152906040525b915050919050565b6000600560008473ffffffffffffffffffffffffffffffffffffffff1673ffffffffffffffffffffffffffffffffffffffff16815260200190815260200160002060008373ffffffffffffffffffffffffffffffffffffffff1673ffffffffffffffffffffffffffffffffffffffff16815260200190815260200160002060009054906101000a900460ff16905092915050565b610d17610edd565b73ffffffffffffffffffffffffffffffffffffffff16610d35610a0c565b73ffffffffffffffffffffffffffffffffffffffff1614610d8b576040517f08c379a0000000000000000000000000000000000000000000000000000000008152600401610d82906120af565b60405180910390fd5b600073ffffffffffffffffffffffffffffffffffffffff168173ffffffffffffffffffffffffffffffffffffffff161415610dfb576040517f08c379a0000000000000000000000000000000000000000000000000000000008152600401610df290611f8f565b60405180910390fd5b610e04816112e3565b50565b60007f01ffc9a7000000000000000000000000000000000000000000000000000000007bffffffffffffffffffffffffffffffffffffffffffffffffffffffff1916827bffffffffffffffffffffffffffffffffffffffffffffffffffffffff1916149050919050565b60008073ffffffffffffffffffffffffffffffffffffffff166002600084815260200190815260200160002060009054906101000a900473ffffffffffffffffffffffffffffffffffffffff1673ffffffffffffffffffffffffffffffffffffffff1614159050919050565b600033905090565b816004600083815260200190815260200160002060006101000a81548173ffffffffffffffffffffffffffffffffffffffff021916908373ffffffffffffffffffffffffffffffffffffffff160217905550808273ffffffffffffffffffffffffffffffffffffffff16610f588361078c565b73ffffffffffffffffffffffffffffffffffffffff167f8c5be1e5ebec7d5bd14f71427d1e84f3dd0314c0f7b2291e5b200ac8c7c3b92560405160405180910390a45050565b6000610fa982610e71565b610fe8576040517f08c379a0000000000000000000000000000000000000000000000000000000008152600401610fdf9061200f565b60405180910390fd5b6000610ff38361078c565b90508073ffffffffffffffffffffffffffffffffffffffff168473ffffffffffffffffffffffffffffffffffffffff16148061106257508373ffffffffffffffffffffffffffffffffffffffff1661104a84610549565b73ffffffffffffffffffffffffffffffffffffffff16145b8061107357506110728185610c7b565b5b91505092915050565b8273ffffffffffffffffffffffffffffffffffffffff1661109c8261078c565b73ffffffffffffffffffffffffffffffffffffffff16146110f2576040517f08c379a00000000000000000000000000000000000000000000000000000000081526004016110e990611faf565b60405180910390fd5b600073ffffffffffffffffffffffffffffffffffffffff168273ffffffffffffffffffffffffffffffffffffffff161415611162576040517f08c379a000000000000000000000000000000000000000000000000000000000815260040161115990611fcf565b60405180910390fd5b61116d838383611736565b611178600082610ee5565b6001600360008573ffffffffffffffffffffffffffffffffffffffff1673ffffffffffffffffffffffffffffffffffffffff16815260200190815260200160002060008282546111c8919061226a565b925050819055506001600360008473ffffffffffffffffffffffffffffffffffffffff1673ffffffffffffffffffffffffffffffffffffffff168152602001908152602001600020600082825461121f91906121e3565b92505081905550816002600083815260200190815260200160002060006101000a81548173ffffffffffffffffffffffffffffffffffffffff021916908373ffffffffffffffffffffffffffffffffffffffff160217905550808273ffffffffffffffffffffffffffffffffffffffff168473ffffffffffffffffffffffffffffffffffffffff167fddf252ad1be2c89b69c2b068fc378daa952ba7f163c4a11628f55a4df523b3ef60405160405180910390a46112de83838361173b565b505050565b6000600660009054906101000a900473ffffffffffffffffffffffffffffffffffffffff16905081600660006101000a81548173ffffffffffffffffffffffffffffffffffffffff021916908373ffffffffffffffffffffffffffffffffffffffff1602179055508173ffffffffffffffffffffffffffffffffffffffff168173ffffffffffffffffffffffffffffffffffffffff167f8be0079c531659141344cd1fd0a4f28419497f9722a3daafe3b4186f6b6457e060405160405180910390a35050565b8173ffffffffffffffffffffffffffffffffffffffff168373ffffffffffffffffffffffffffffffffffffffff161415611418576040517f08c379a000000000000000000000000000000000000000000000000000000000815260040161140f90611fef565b60405180910390fd5b80600560008573ffffffffffffffffffffffffffffffffffffffff1673ffffffffffffffffffffffffffffffffffffffff16815260200190815260200160002060008473ffffffffffffffffffffffffffffffffffffffff1673ffffffffffffffffffffffffffffffffffffffff16815260200190815260200160002060006101000a81548160ff0219169083151502179055508173ffffffffffffffffffffffffffffffffffffffff168373ffffffffffffffffffffffffffffffffffffffff167f17307eab39ab6107e8899845ad3d59bd9653f200f220920489ca2b5937696c31836040516115099190611f32565b60405180910390a3505050565b61152184848461107c565b61152d84848484611740565b61156c576040517f08c379a000000000000000000000000000000000000000000000000000000000815260040161156390611f6f565b60405180910390fd5b50505050565b606060405180602001604052806000815250905090565b606060008214156115d1576040518060400160405280600181526020017f30000000000000000000000000000000000000000000000000000000000000008152509050611731565b600082905060005b600082146116035780806115ec906123b7565b915050600a826115fc9190612239565b91506115d9565b60008167ffffffffffffffff811115611645577f4e487b7100000000000000000000000000000000000000000000000000000000600052604160045260246000fd5b6040519080825280601f01601f1916602001820160405280156116775781602001600182028036833780820191505090505b5090505b6000851461172a57600182611690919061226a565b9150600a8561169f9190612400565b60306116ab91906121e3565b60f81b8183815181106116e7577f4e487b7100000000000000000000000000000000000000000000000000000000600052603260045260246000fd5b60200101907effffffffffffffffffffffffffffffffffffffffffffffffffffffffffffff1916908160001a905350600a856117239190612239565b945061167b565b8093505050505b919050565b505050565b505050565b60006117618473ffffffffffffffffffffffffffffffffffffffff166118d7565b156118ca578373ffffffffffffffffffffffffffffffffffffffff1663150b7a0261178a610edd565b8786866040518563ffffffff1660e01b81526004016117ac9493929190611ee6565b602060405180830381600087803b1580156117c657600080fd5b505af19250505080156117f757506040513d601f19601f820116820180604052508101906117f49190611b9b565b60015b61187a573d8060008114611827576040519150601f19603f3d011682016040523d82523d6000602084013e61182c565b606091505b50600081511415611872576040517f08c379a000000000000000000000000000000000000000000000000000000000815260040161186990611f6f565b60405180910390fd5b805181602001fd5b63150b7a0260e01b7bffffffffffffffffffffffffffffffffffffffffffffffffffffffff1916817bffffffffffffffffffffffffffffffffffffffffffffffffffffffff1916149150506118cf565b600190505b949350505050565b6000808273ffffffffffffffffffffffffffffffffffffffff163b119050919050565b600061190d6119088461216f565b61214a565b90508281526020810184848401111561192557600080fd5b611930848285612312565b509392505050565b60008135905061194781612904565b92915050565b60008135905061195c8161291b565b92915050565b60008135905061197181612932565b92915050565b60008151905061198681612932565b92915050565b600082601f83011261199d57600080fd5b81356119ad8482602086016118fa565b91505092915050565b6000813590506119c581612949565b92915050565b6000602082840312156119dd57600080fd5b60006119eb84828501611938565b91505092915050565b60008060408385031215611a0757600080fd5b6000611a1585828601611938565b9250506020611a2685828601611938565b9150509250929050565b600080600060608486031215611a4557600080fd5b6000611a5386828701611938565b9350506020611a6486828701611938565b9250506040611a75868287016119b6565b9150509250925092565b60008060008060808587031215611a9557600080fd5b6000611aa387828801611938565b9450506020611ab487828801611938565b9350506040611ac5878288016119b6565b925050606085013567ffffffffffffffff811115611ae257600080fd5b611aee8782880161198c565b91505092959194509250565b60008060408385031215611b0d57600080fd5b6000611b1b85828601611938565b9250506020611b2c8582860161194d565b9150509250929050565b60008060408385031215611b4957600080fd5b6000611b5785828601611938565b9250506020611b68858286016119b6565b9150509250929050565b600060208284031215611b8457600080fd5b6000611b9284828501611962565b91505092915050565b600060208284031215611bad57600080fd5b6000611bbb84828501611977565b91505092915050565b600060208284031215611bd657600080fd5b6000611be4848285016119b6565b91505092915050565b611bf68161229e565b82525050565b611c05816122b0565b82525050565b6000611c16826121a0565b611c2081856121b6565b9350611c30818560208601612321565b611c39816124ed565b840191505092915050565b6000611c4f826121ab565b611c5981856121c7565b9350611c69818560208601612321565b611c72816124ed565b840191505092915050565b6000611c88826121ab565b611c9281856121d8565b9350611ca2818560208601612321565b80840191505092915050565b6000611cbb6032836121c7565b9150611cc6826124fe565b604082019050919050565b6000611cde6026836121c7565b9150611ce98261254d565b604082019050919050565b6000611d016025836121c7565b9150611d0c8261259c565b604082019050919050565b6000611d246024836121c7565b9150611d2f826125eb565b604082019050919050565b6000611d476019836121c7565b9150611d528261263a565b602082019050919050565b6000611d6a602c836121c7565b9150611d7582612663565b604082019050919050565b6000611d8d6038836121c7565b9150611d98826126b2565b604082019050919050565b6000611db0602a836121c7565b9150611dbb82612701565b604082019050919050565b6000611dd36029836121c7565b9150611dde82612750565b604082019050919050565b6000611df6602c836121c7565b9150611e018261279f565b604082019050919050565b6000611e196020836121c7565b9150611e24826127ee565b602082019050919050565b6000611e3c602f836121c7565b9150611e4782612817565b604082019050919050565b6000611e5f6021836121c7565b9150611e6a82612866565b604082019050919050565b6000611e826031836121c7565b9150611e8d826128b5565b604082019050919050565b611ea181612308565b82525050565b6000611eb38285611c7d565b9150611ebf8284611c7d565b91508190509392505050565b6000602082019050611ee06000830184611bed565b92915050565b6000608082019050611efb6000830187611bed565b611f086020830186611bed565b611f156040830185611e98565b8181036060830152611f278184611c0b565b905095945050505050565b6000602082019050611f476000830184611bfc565b92915050565b60006020820190508181036000830152611f678184611c44565b905092915050565b60006020820190508181036000830152611f8881611cae565b9050919050565b60006020820190508181036000830152611fa881611cd1565b9050919050565b60006020820190508181036000830152611fc881611cf4565b9050919050565b60006020820190508181036000830152611fe881611d17565b9050919050565b6000602082019050818103600083015261200881611d3a565b9050919050565b6000602082019050818103600083015261202881611d5d565b9050919050565b6000602082019050818103600083015261204881611d80565b9050919050565b6000602082019050818103600083015261206881611da3565b9050919050565b6000602082019050818103600083015261208881611dc6565b9050919050565b600060208201905081810360008301526120a881611de9565b9050919050565b600060208201905081810360008301526120c881611e0c565b9050919050565b600060208201905081810360008301526120e881611e2f565b9050919050565b6000602082019050818103600083015261210881611e52565b9050919050565b6000602082019050818103600083015261212881611e75565b9050919050565b60006020820190506121446000830184611e98565b92915050565b6000612154612165565b90506121608282612386565b919050565b6000604051905090565b600067ffffffffffffffff82111561218a576121896124be565b5b612193826124ed565b9050602081019050919050565b600081519050919050565b600081519050919050565b600082825260208201905092915050565b600082825260208201905092915050565b600081905092915050565b60006121ee82612308565b91506121f983612308565b9250827fffffffffffffffffffffffffffffffffffffffffffffffffffffffffffffffff0382111561222e5761222d612431565b5b828201905092915050565b600061224482612308565b915061224f83612308565b92508261225f5761225e612460565b5b828204905092915050565b600061227582612308565b915061228083612308565b92508282101561229357612292612431565b5b828203905092915050565b60006122a9826122e8565b9050919050565b60008115159050919050565b60007fffffffff0000000000000000000000000000000000000000000000000000000082169050919050565b600073ffffffffffffffffffffffffffffffffffffffff82169050919050565b6000819050919050565b82818337600083830152505050565b60005b8381101561233f578082015181840152602081019050612324565b8381111561234e576000848401525b50505050565b6000600282049050600182168061236c57607f821691505b602082108114156123805761237f61248f565b5b50919050565b61238f826124ed565b810181811067ffffffffffffffff821117156123ae576123ad6124be565b5b80604052505050565b60006123c282612308565b91507fffffffffffffffffffffffffffffffffffffffffffffffffffffffffffffffff8214156123f5576123f4612431565b5b600182019050919050565b600061240b82612308565b915061241683612308565b92508261242657612425612460565b5b828206905092915050565b7f4e487b7100000000000000000000000000000000000000000000000000000000600052601160045260246000fd5b7f4e487b7100000000000000000000000000000000000000000000000000000000600052601260045260246000fd5b7f4e487b7100000000000000000000000000000000000000000000000000000000600052602260045260246000fd5b7f4e487b7100000000000000000000000000000000000000000000000000000000600052604160045260246000fd5b6000601f19601f8301169050919050565b7f4552433732313a207472616e7366657220746f206e6f6e20455243373231526560008201527f63656976657220696d706c656d656e7465720000000000000000000000000000602082015250565b7f4f776e61626c653a206e6577206f776e657220697320746865207a65726f206160008201527f6464726573730000000000000000000000000000000000000000000000000000602082015250565b7f4552433732313a207472616e736665722066726f6d20696e636f72726563742060008201527f6f776e6572000000000000000000000000000000000000000000000000000000602082015250565b7f4552433732313a207472616e7366657220746f20746865207a65726f2061646460008201527f7265737300000000000000000000000000000000000000000000000000000000602082015250565b7f4552433732313a20617070726f766520746f2063616c6c657200000000000000600082015250565b7f4552433732313a206f70657261746f7220717565727920666f72206e6f6e657860008201527f697374656e7420746f6b656e0000000000000000000000000000000000000000602082015250565b7f4552433732313a20617070726f76652063616c6c6572206973206e6f74206f7760008201527f6e6572206e6f7220617070726f76656420666f7220616c6c0000000000000000602082015250565b7f4552433732313a2062616c616e636520717565727920666f7220746865207a6560008201527f726f206164647265737300000000000000000000000000000000000000000000602082015250565b7f4552433732313a206f776e657220717565727920666f72206e6f6e657869737460008201527f656e7420746f6b656e0000000000000000000000000000000000000000000000602082015250565b7f4552433732313a20617070726f76656420717565727920666f72206e6f6e657860008201527f697374656e7420746f6b656e0000000000000000000000000000000000000000602082015250565b7f4f776e61626c653a2063616c6c6572206973206e6f7420746865206f776e6572600082015250565b7f4552433732314d657461646174613a2055524920717565727920666f72206e6f60008201527f6e6578697374656e7420746f6b656e0000000000000000000000000000000000602082015250565b7f4552433732313a20617070726f76616c20746f2063757272656e74206f776e6560008201527f7200000000000000000000000000000000000000000000000000000000000000602082015250565b7f4552433732313a207472616e736665722063616c6c6572206973206e6f74206f60008201527f776e6572206e6f7220617070726f766564000000000000000000000000000000602082015250565b61290d8161229e565b811461291857600080fd5b50565b612924816122b0565b811461292f57600080fd5b50565b61293b816122bc565b811461294657600080fd5b50565b61295281612308565b811461295d57600080fd5b5056fea2646970667358221220a774ee5ca24ebfab5a32a656326f8c12a6e59a157bec59c5935b193d07f90e6164736f6c6343000804003368747470733a2f2f62616679626569687a6c6e707637657135693575746b6d6337786575623367767a737a6a697175366a763572706264686934326e696566623664752e697066732e6e667473746f726167652e6c696e6b2f",
  "linkReferences": {},
  "deployedLinkReferences": {}
}