{
  "_format": "hh-sol-artifact-1",
  "contractName": "Agora",
  "sourceName": "src/backend/contracts/Agora_contracts.sol",
  "abi": [
    {
      "inputs": [
        {
          "internalType": "address",
          "name": "_artist",
          "type": "address"
        },
        {
          "internalType": "uint256",
          "name": "_royaltyFee",
          "type": "uint256"
        },
        {
          "internalType": "uint256[]",
          "name": "_prices",
          "type": "uint256[]"
        }
      ],
      "stateMutability": "payable",
      "type": "constructor"
    },
    {
      "anonymous": false,
      "inputs": [
        {
          "indexed": true,
          "internalType": "address",
          "name": "owner",
          "type": "address"
        },
        {
          "indexed": true,
          "internalType": "address",
          "name": "approved",
          "type": "address"
        },
        {
          "indexed": true,
          "internalType": "uint256",
          "name": "tokenId",
          "type": "uint256"
        }
      ],
      "name": "Approval",
      "type": "event"
    },
    {
      "anonymous": false,
      "inputs": [
        {
          "indexed": true,
          "internalType": "address",
          "name": "owner",
          "type": "address"
        },
        {
          "indexed": true,
          "internalType": "address",
          "name": "operator",
          "type": "address"
        },
        {
          "indexed": false,
          "internalType": "bool",
          "name": "approved",
          "type": "bool"
        }
      ],
      "name": "ApprovalForAll",
      "type": "event"
    },
    {
      "anonymous": false,
      "inputs": [
        {
          "indexed": true,
          "internalType": "uint256",
          "name": "tokenId",
          "type": "uint256"
        },
        {
          "indexed": true,
          "internalType": "address",
          "name": "seller",
          "type": "address"
        },
        {
          "indexed": false,
          "internalType": "address",
          "name": "buyer",
          "type": "address"
        },
        {
          "indexed": false,
          "internalType": "uint256",
          "name": "price",
          "type": "uint256"
        }
      ],
      "name": "MarketItemBought",
      "type": "event"
    },
    {
      "anonymous": false,
      "inputs": [
        {
          "indexed": true,
          "internalType": "address",
          "name": "previousOwner",
          "type": "address"
        },
        {
          "indexed": true,
          "internalType": "address",
          "name": "newOwner",
          "type": "address"
        }
      ],
      "name": "OwnershipTransferred",
      "type": "event"
    },
    {
      "anonymous": false,
      "inputs": [
        {
          "indexed": true,
          "internalType": "address",
          "name": "from",
          "type": "address"
        },
        {
          "indexed": true,
          "internalType": "address",
          "name": "to",
          "type": "address"
        },
        {
          "indexed": true,
          "internalType": "uint256",
          "name": "tokenId",
          "type": "uint256"
        }
      ],
      "name": "Transfer",
      "type": "event"
    },
    {
      "inputs": [
        {
          "internalType": "address",
          "name": "to",
          "type": "address"
        },
        {
          "internalType": "uint256",
          "name": "tokenId",
          "type": "uint256"
        }
      ],
      "name": "approve",
      "outputs": [],
      "stateMutability": "nonpayable",
      "type": "function"
    },
    {
      "inputs": [],
      "name": "artist",
      "outputs": [
        {
          "internalType": "address",
          "name": "",
          "type": "address"
        }
      ],
      "stateMutability": "view",
      "type": "function"
    },
    {
      "inputs": [
        {
          "internalType": "address",
          "name": "owner",
          "type": "address"
        }
      ],
      "name": "balanceOf",
      "outputs": [
        {
          "internalType": "uint256",
          "name": "",
          "type": "uint256"
        }
      ],
      "stateMutability": "view",
      "type": "function"
    },
    {
      "inputs": [],
      "name": "baseExtension",
      "outputs": [
        {
          "internalType": "string",
          "name": "",
          "type": "string"
        }
      ],
      "stateMutability": "view",
      "type": "function"
    },
    {
      "inputs": [
        {
          "internalType": "uint256",
          "name": "_tokenId",
          "type": "uint256"
        }
      ],
      "name": "buyToken",
      "outputs": [],
      "stateMutability": "payable",
      "type": "function"
    },
    {
      "inputs": [
        {
          "internalType": "uint256",
          "name": "tokenId",
          "type": "uint256"
        }
      ],
      "name": "getApproved",
      "outputs": [
        {
          "internalType": "address",
          "name": "",
          "type": "address"
        }
      ],
      "stateMutability": "view",
      "type": "function"
    },
    {
      "inputs": [
        {
          "internalType": "address",
          "name": "owner",
          "type": "address"
        },
        {
          "internalType": "address",
          "name": "operator",
          "type": "address"
        }
      ],
      "name": "isApprovedForAll",
      "outputs": [
        {
          "internalType": "bool",
          "name": "",
          "type": "bool"
        }
      ],
      "stateMutability": "view",
      "type": "function"
    },
    {
      "inputs": [
        {
          "internalType": "uint256",
          "name": "",
          "type": "uint256"
        }
      ],
      "name": "marketItems",
      "outputs": [
        {
          "internalType": "uint256",
          "name": "tokenID",
          "type": "uint256"
        },
        {
          "internalType": "address payable",
          "name": "seller",
          "type": "address"
        },
        {
          "internalType": "uint256",
          "name": "price",
          "type": "uint256"
        }
      ],
      "stateMutability": "view",
      "type": "function"
    },
    {
      "inputs": [],
      "name": "metadataURI",
      "outputs": [
        {
          "internalType": "string",
          "name": "",
          "type": "string"
        }
      ],
      "stateMutability": "view",
      "type": "function"
    },
    {
      "inputs": [],
      "name": "name",
      "outputs": [
        {
          "internalType": "string",
          "name": "",
          "type": "string"
        }
      ],
      "stateMutability": "view",
      "type": "function"
    },
    {
      "inputs": [],
      "name": "owner",
      "outputs": [
        {
          "internalType": "address",
          "name": "",
          "type": "address"
        }
      ],
      "stateMutability": "view",
      "type": "function"
    },
    {
      "inputs": [
        {
          "internalType": "uint256",
          "name": "tokenId",
          "type": "uint256"
        }
      ],
      "name": "ownerOf",
      "outputs": [
        {
          "internalType": "address",
          "name": "",
          "type": "address"
        }
      ],
      "stateMutability": "view",
      "type": "function"
    },
    {
      "inputs": [],
      "name": "renounceOwnership",
      "outputs": [],
      "stateMutability": "nonpayable",
      "type": "function"
    },
    {
      "inputs": [],
      "name": "royaltyFee",
      "outputs": [
        {
          "internalType": "uint256",
          "name": "",
          "type": "uint256"
        }
      ],
      "stateMutability": "view",
      "type": "function"
    },
    {
      "inputs": [
        {
          "internalType": "address",
          "name": "from",
          "type": "address"
        },
        {
          "internalType": "address",
          "name": "to",
          "type": "address"
        },
        {
          "internalType": "uint256",
          "name": "tokenId",
          "type": "uint256"
        }
      ],
      "name": "safeTransferFrom",
      "outputs": [],
      "stateMutability": "nonpayable",
      "type": "function"
    },
    {
      "inputs": [
        {
          "internalType": "address",
          "name": "from",
          "type": "address"
        },
        {
          "internalType": "address",
          "name": "to",
          "type": "address"
        },
        {
          "internalType": "uint256",
          "name": "tokenId",
          "type": "uint256"
        },
        {
          "internalType": "bytes",
          "name": "_data",
          "type": "bytes"
        }
      ],
      "name": "safeTransferFrom",
      "outputs": [],
      "stateMutability": "nonpayable",
      "type": "function"
    },
    {
      "inputs": [
        {
          "internalType": "address",
          "name": "operator",
          "type": "address"
        },
        {
          "internalType": "bool",
          "name": "approved",
          "type": "bool"
        }
      ],
      "name": "setApprovalForAll",
      "outputs": [],
      "stateMutability": "nonpayable",
      "type": "function"
    },
    {
      "inputs": [
        {
          "internalType": "bytes4",
          "name": "interfaceId",
          "type": "bytes4"
        }
      ],
      "name": "supportsInterface",
      "outputs": [
        {
          "internalType": "bool",
          "name": "",
          "type": "bool"
        }
      ],
      "stateMutability": "view",
      "type": "function"
    },
    {
      "inputs": [],
      "name": "symbol",
      "outputs": [
        {
          "internalType": "string",
          "name": "",
          "type": "string"
        }
      ],
      "stateMutability": "view",
      "type": "function"
    },
    {
      "inputs": [
        {
          "internalType": "uint256",
          "name": "tokenId",
          "type": "uint256"
        }
      ],
      "name": "tokenURI",
      "outputs": [
        {
          "internalType": "string",
          "name": "",
          "type": "string"
        }
      ],
      "stateMutability": "view",
      "type": "function"
    },
    {
      "inputs": [
        {
          "internalType": "address",
          "name": "from",
          "type": "address"
        },
        {
          "internalType": "address",
          "name": "to",
          "type": "address"
        },
        {
          "internalType": "uint256",
          "name": "tokenId",
          "type": "uint256"
        }
      ],
      "name": "transferFrom",
      "outputs": [],
      "stateMutability": "nonpayable",
      "type": "function"
    },
    {
      "inputs": [
        {
          "internalType": "address",
          "name": "newOwner",
          "type": "address"
        }
      ],
      "name": "transferOwnership",
      "outputs": [],
      "stateMutability": "nonpayable",
      "type": "function"
    },
    {
      "inputs": [
        {
          "internalType": "uint256",
          "name": "_royaltyFee",
          "type": "uint256"
        }
      ],
      "name": "updateRoyaltyFee",
      "outputs": [],
      "stateMutability": "nonpayable",
      "type": "function"
    }
  ],
  "bytecode": "0x608060405260405180608001604052806059815260200162003da360599139600790805190602001906200003592919062000712565b506040518060400160405280600581526020017f2e6a736f6e000000000000000000000000000000000000000000000000000000815250600890805190602001906200008392919062000712565b5060405162003dfc38038062003dfc8339818101604052810190620000a9919062000892565b6040518060400160405280600581526020017f41676f72610000000000000000000000000000000000000000000000000000008152506040518060400160405280600481526020017f414752410000000000000000000000000000000000000000000000000000000081525081600090805190602001906200012d92919062000712565b5080600190805190602001906200014692919062000712565b505050620001696200015d620003d460201b60201c565b620003dc60201b60201c565b3482825162000179919062000aeb565b1115620001bd576040517f08c379a0000000000000000000000000000000000000000000000000000000008152600401620001b490620009bf565b60405180910390fd5b81600a8190555082600960006101000a81548173ffffffffffffffffffffffffffffffffffffffff021916908373ffffffffffffffffffffffffffffffffffffffff16021790555060005b81518160ff161015620003ca576000828260ff168151811062000254577f4e487b7100000000000000000000000000000000000000000000000000000000600052603260045260246000fd5b6020026020010151116200029f576040517f08c379a0000000000000000000000000000000000000000000000000000000008152600401620002969062000a03565b60405180910390fd5b620002b4308260ff16620004a260201b60201c565b600b60405180606001604052808360ff1681526020013373ffffffffffffffffffffffffffffffffffffffff168152602001848460ff168151811062000323577f4e487b7100000000000000000000000000000000000000000000000000000000600052603260045260246000fd5b602002602001015181525090806001815401808255809150506001900390600052602060002090600302016000909190919091506000820151816000015560208201518160010160006101000a81548173ffffffffffffffffffffffffffffffffffffffff021916908373ffffffffffffffffffffffffffffffffffffffff1602179055506040820151816002015550508080620003c19062000c03565b91505062000208565b5050505062000dce565b600033905090565b6000600660009054906101000a900473ffffffffffffffffffffffffffffffffffffffff16905081600660006101000a81548173ffffffffffffffffffffffffffffffffffffffff021916908373ffffffffffffffffffffffffffffffffffffffff1602179055508173ffffffffffffffffffffffffffffffffffffffff168173ffffffffffffffffffffffffffffffffffffffff167f8be0079c531659141344cd1fd0a4f28419497f9722a3daafe3b4186f6b6457e060405160405180910390a35050565b600073ffffffffffffffffffffffffffffffffffffffff168273ffffffffffffffffffffffffffffffffffffffff16141562000515576040517f08c379a00000000000000000000000000000000000000000000000000000000081526004016200050c90620009e1565b60405180910390fd5b62000526816200069c60201b60201c565b1562000569576040517f08c379a000000000000000000000000000000000000000000000000000000000815260040162000560906200099d565b60405180910390fd5b6200057d600083836200070860201b60201c565b6001600360008473ffffffffffffffffffffffffffffffffffffffff1673ffffffffffffffffffffffffffffffffffffffff1681526020019081526020016000206000828254620005cf919062000a8e565b92505081905550816002600083815260200190815260200160002060006101000a81548173ffffffffffffffffffffffffffffffffffffffff021916908373ffffffffffffffffffffffffffffffffffffffff160217905550808273ffffffffffffffffffffffffffffffffffffffff16600073ffffffffffffffffffffffffffffffffffffffff167fddf252ad1be2c89b69c2b068fc378daa952ba7f163c4a11628f55a4df523b3ef60405160405180910390a462000698600083836200070d60201b60201c565b5050565b60008073ffffffffffffffffffffffffffffffffffffffff166002600084815260200190815260200160002060009054906101000a900473ffffffffffffffffffffffffffffffffffffffff1673ffffffffffffffffffffffffffffffffffffffff1614159050919050565b505050565b505050565b828054620007209062000b97565b90600052602060002090601f01602090048101928262000744576000855562000790565b82601f106200075f57805160ff191683800117855562000790565b8280016001018555821562000790579182015b828111156200078f57825182559160200191906001019062000772565b5b5090506200079f9190620007a3565b5090565b5b80821115620007be576000816000905550600101620007a4565b5090565b6000620007d9620007d38462000a4e565b62000a25565b90508083825260208201905082856020860282011115620007f957600080fd5b60005b858110156200082d57816200081288826200087b565b845260208401935060208301925050600181019050620007fc565b5050509392505050565b600081519050620008488162000d9a565b92915050565b600082601f8301126200086057600080fd5b815162000872848260208601620007c2565b91505092915050565b6000815190506200088c8162000db4565b92915050565b600080600060608486031215620008a857600080fd5b6000620008b88682870162000837565b9350506020620008cb868287016200087b565b925050604084015167ffffffffffffffff811115620008e957600080fd5b620008f7868287016200084e565b9150509250925092565b600062000910601c8362000a7d565b91506200091d8262000cd0565b602082019050919050565b60006200093760348362000a7d565b9150620009448262000cf9565b604082019050919050565b60006200095e60208362000a7d565b91506200096b8262000d48565b602082019050919050565b600062000985601c8362000a7d565b9150620009928262000d71565b602082019050919050565b60006020820190508181036000830152620009b88162000901565b9050919050565b60006020820190508181036000830152620009da8162000928565b9050919050565b60006020820190508181036000830152620009fc816200094f565b9050919050565b6000602082019050818103600083015262000a1e8162000976565b9050919050565b600062000a3162000a44565b905062000a3f828262000bcd565b919050565b6000604051905090565b600067ffffffffffffffff82111562000a6c5762000a6b62000c90565b5b602082029050602081019050919050565b600082825260208201905092915050565b600062000a9b8262000b80565b915062000aa88362000b80565b9250827fffffffffffffffffffffffffffffffffffffffffffffffffffffffffffffffff0382111562000ae05762000adf62000c32565b5b828201905092915050565b600062000af88262000b80565b915062000b058362000b80565b9250817fffffffffffffffffffffffffffffffffffffffffffffffffffffffffffffffff048311821515161562000b415762000b4062000c32565b5b828202905092915050565b600062000b598262000b60565b9050919050565b600073ffffffffffffffffffffffffffffffffffffffff82169050919050565b6000819050919050565b600060ff82169050919050565b6000600282049050600182168062000bb057607f821691505b6020821081141562000bc75762000bc662000c61565b5b50919050565b62000bd88262000cbf565b810181811067ffffffffffffffff8211171562000bfa5762000bf962000c90565b5b80604052505050565b600062000c108262000b8a565b915060ff82141562000c275762000c2662000c32565b5b600182019050919050565b7f4e487b7100000000000000000000000000000000000000000000000000000000600052601160045260246000fd5b7f4e487b7100000000000000000000000000000000000000000000000000000000600052602260045260246000fd5b7f4e487b7100000000000000000000000000000000000000000000000000000000600052604160045260246000fd5b6000601f19601f8301169050919050565b7f4552433732313a20746f6b656e20616c7265616479206d696e74656400000000600082015250565b7f6465706c6f796572206d7573742070617920726f79616c74792066656520666f60008201527f72206561636820746f6b656e206c697374656420000000000000000000000000602082015250565b7f4552433732313a206d696e7420746f20746865207a65726f2061646472657373600082015250565b7f5072696365206d7573742062652067726561746572207468616e203000000000600082015250565b62000da58162000b4c565b811462000db157600080fd5b50565b62000dbf8162000b80565b811462000dcb57600080fd5b50565b612fc58062000dde6000396000f3fe6080604052600436106101405760003560e01c80636352211e116100b6578063b88d4fde1161006f578063b88d4fde1461044f578063b8997a9714610478578063c6682862146104a3578063c87b56dd146104ce578063e985e9c51461050b578063f2fde38b1461054857610140565b80636352211e1461033f57806370a082311461037c578063715018a6146103b95780638da5cb5b146103d057806395d89b41146103fb578063a22cb4651461042657610140565b806323b872dd1161010857806323b872dd1461023e5780632d296bf11461026757806342842e0e1461028357806343bc1612146102ac5780634e83be47146102d757806351f28e141461030057610140565b806301ffc9a71461014557806303ee438c1461018257806306fdde03146101ad578063081812fc146101d8578063095ea7b314610215575b600080fd5b34801561015157600080fd5b5061016c6004803603810190610167919061208e565b610571565b60405161017991906124a9565b60405180910390f35b34801561018e57600080fd5b50610197610653565b6040516101a491906124c4565b60405180910390f35b3480156101b957600080fd5b506101c26106e1565b6040516101cf91906124c4565b60405180910390f35b3480156101e457600080fd5b506101ff60048036038101906101fa91906120e0565b610773565b60405161020c9190612419565b60405180910390f35b34801561022157600080fd5b5061023c60048036038101906102379190612052565b6107f8565b005b34801561024a57600080fd5b5061026560048036038101906102609190611f4c565b610910565b005b610281600480360381019061027c91906120e0565b610970565b005b34801561028f57600080fd5b506102aa60048036038101906102a59190611f4c565b610c10565b005b3480156102b857600080fd5b506102c1610c30565b6040516102ce9190612419565b60405180910390f35b3480156102e357600080fd5b506102fe60048036038101906102f991906120e0565b610c56565b005b34801561030c57600080fd5b50610327600480360381019061032291906120e0565b610cdc565b604051610336939291906126e1565b60405180910390f35b34801561034b57600080fd5b50610366600480360381019061036191906120e0565b610d36565b6040516103739190612419565b60405180910390f35b34801561038857600080fd5b506103a3600480360381019061039e9190611ee7565b610de8565b6040516103b091906126c6565b60405180910390f35b3480156103c557600080fd5b506103ce610ea0565b005b3480156103dc57600080fd5b506103e5610f28565b6040516103f29190612419565b60405180910390f35b34801561040757600080fd5b50610410610f52565b60405161041d91906124c4565b60405180910390f35b34801561043257600080fd5b5061044d60048036038101906104489190612016565b610fe4565b005b34801561045b57600080fd5b5061047660048036038101906104719190611f9b565b610ffa565b005b34801561048457600080fd5b5061048d61105c565b60405161049a91906126c6565b60405180910390f35b3480156104af57600080fd5b506104b8611062565b6040516104c591906124c4565b60405180910390f35b3480156104da57600080fd5b506104f560048036038101906104f091906120e0565b6110f0565b60405161050291906124c4565b60405180910390f35b34801561051757600080fd5b50610532600480360381019061052d9190611f10565b611197565b60405161053f91906124a9565b60405180910390f35b34801561055457600080fd5b5061056f600480360381019061056a9190611ee7565b61122b565b005b60007f80ac58cd000000000000000000000000000000000000000000000000000000007bffffffffffffffffffffffffffffffffffffffffffffffffffffffff1916827bffffffffffffffffffffffffffffffffffffffffffffffffffffffff1916148061063c57507f5b5e139f000000000000000000000000000000000000000000000000000000007bffffffffffffffffffffffffffffffffffffffffffffffffffffffff1916827bffffffffffffffffffffffffffffffffffffffffffffffffffffffff1916145b8061064c575061064b82611323565b5b9050919050565b6007805461066090612934565b80601f016020809104026020016040519081016040528092919081815260200182805461068c90612934565b80156106d95780601f106106ae576101008083540402835291602001916106d9565b820191906000526020600020905b8154815290600101906020018083116106bc57829003601f168201915b505050505081565b6060600080546106f090612934565b80601f016020809104026020016040519081016040528092919081815260200182805461071c90612934565b80156107695780601f1061073e57610100808354040283529160200191610769565b820191906000526020600020905b81548152906001019060200180831161074c57829003601f168201915b5050505050905090565b600061077e8261138d565b6107bd576040517f08c379a00000000000000000000000000000000000000000000000000000000081526004016107b490612626565b60405180910390fd5b6004600083815260200190815260200160002060009054906101000a900473ffffffffffffffffffffffffffffffffffffffff169050919050565b600061080382610d36565b90508073ffffffffffffffffffffffffffffffffffffffff168373ffffffffffffffffffffffffffffffffffffffff161415610874576040517f08c379a000000000000000000000000000000000000000000000000000000000815260040161086b90612686565b60405180910390fd5b8073ffffffffffffffffffffffffffffffffffffffff166108936113f9565b73ffffffffffffffffffffffffffffffffffffffff1614806108c257506108c1816108bc6113f9565b611197565b5b610901576040517f08c379a00000000000000000000000000000000000000000000000000000000081526004016108f8906125c6565b60405180910390fd5b61090b8383611401565b505050565b61092161091b6113f9565b826114ba565b610960576040517f08c379a0000000000000000000000000000000000000000000000000000000008152600401610957906126a6565b60405180910390fd5b61096b838383611598565b505050565b6000600b82815481106109ac577f4e487b7100000000000000000000000000000000000000000000000000000000600052603260045260246000fd5b90600052602060002090600302016002015490506000600b83815481106109fc577f4e487b7100000000000000000000000000000000000000000000000000000000600052603260045260246000fd5b906000526020600020906003020160010160009054906101000a900473ffffffffffffffffffffffffffffffffffffffff169050813414610a72576040517f08c379a0000000000000000000000000000000000000000000000000000000008152600401610a6990612526565b60405180910390fd5b6000600b8481548110610aae577f4e487b7100000000000000000000000000000000000000000000000000000000600052603260045260246000fd5b906000526020600020906003020160010160006101000a81548173ffffffffffffffffffffffffffffffffffffffff021916908373ffffffffffffffffffffffffffffffffffffffff160217905550610b08303385611598565b600960009054906101000a900473ffffffffffffffffffffffffffffffffffffffff1673ffffffffffffffffffffffffffffffffffffffff166108fc600a549081150290604051600060405180830381858888f19350505050158015610b72573d6000803e3d6000fd5b508073ffffffffffffffffffffffffffffffffffffffff166108fc349081150290604051600060405180830381858888f19350505050158015610bb9573d6000803e3d6000fd5b508073ffffffffffffffffffffffffffffffffffffffff16837fd356b8423ef89ccba8e4f1dbeccc60b41825fd97d432f2e6a6dbd11ae6ecec113385604051610c03929190612480565b60405180910390a3505050565b610c2b83838360405180602001604052806000815250610ffa565b505050565b600960009054906101000a900473ffffffffffffffffffffffffffffffffffffffff1681565b610c5e6113f9565b73ffffffffffffffffffffffffffffffffffffffff16610c7c610f28565b73ffffffffffffffffffffffffffffffffffffffff1614610cd2576040517f08c379a0000000000000000000000000000000000000000000000000000000008152600401610cc990612646565b60405180910390fd5b80600a8190555050565b600b8181548110610cec57600080fd5b90600052602060002090600302016000915090508060000154908060010160009054906101000a900473ffffffffffffffffffffffffffffffffffffffff16908060020154905083565b6000806002600084815260200190815260200160002060009054906101000a900473ffffffffffffffffffffffffffffffffffffffff169050600073ffffffffffffffffffffffffffffffffffffffff168173ffffffffffffffffffffffffffffffffffffffff161415610ddf576040517f08c379a0000000000000000000000000000000000000000000000000000000008152600401610dd690612606565b60405180910390fd5b80915050919050565b60008073ffffffffffffffffffffffffffffffffffffffff168273ffffffffffffffffffffffffffffffffffffffff161415610e59576040517f08c379a0000000000000000000000000000000000000000000000000000000008152600401610e50906125e6565b60405180910390fd5b600360008373ffffffffffffffffffffffffffffffffffffffff1673ffffffffffffffffffffffffffffffffffffffff168152602001908152602001600020549050919050565b610ea86113f9565b73ffffffffffffffffffffffffffffffffffffffff16610ec6610f28565b73ffffffffffffffffffffffffffffffffffffffff1614610f1c576040517f08c379a0000000000000000000000000000000000000000000000000000000008152600401610f1390612646565b60405180910390fd5b610f2660006117ff565b565b6000600660009054906101000a900473ffffffffffffffffffffffffffffffffffffffff16905090565b606060018054610f6190612934565b80601f0160208091040260200160405190810160405280929190818152602001828054610f8d90612934565b8015610fda5780601f10610faf57610100808354040283529160200191610fda565b820191906000526020600020905b815481529060010190602001808311610fbd57829003601f168201915b5050505050905090565b610ff6610fef6113f9565b83836118c5565b5050565b61100b6110056113f9565b836114ba565b61104a576040517f08c379a0000000000000000000000000000000000000000000000000000000008152600401611041906126a6565b60405180910390fd5b61105684848484611a32565b50505050565b600a5481565b6008805461106f90612934565b80601f016020809104026020016040519081016040528092919081815260200182805461109b90612934565b80156110e85780601f106110bd576101008083540402835291602001916110e8565b820191906000526020600020905b8154815290600101906020018083116110cb57829003601f168201915b505050505081565b60606110fb8261138d565b61113a576040517f08c379a000000000000000000000000000000000000000000000000000000000815260040161113190612666565b60405180910390fd5b6000611144611a8e565b90506000815111611164576040518060200160405280600081525061118f565b8061116e84611aa5565b60405160200161117f9291906123f5565b6040516020818303038152906040525b915050919050565b6000600560008473ffffffffffffffffffffffffffffffffffffffff1673ffffffffffffffffffffffffffffffffffffffff16815260200190815260200160002060008373ffffffffffffffffffffffffffffffffffffffff1673ffffffffffffffffffffffffffffffffffffffff16815260200190815260200160002060009054906101000a900460ff16905092915050565b6112336113f9565b73ffffffffffffffffffffffffffffffffffffffff16611251610f28565b73ffffffffffffffffffffffffffffffffffffffff16146112a7576040517f08c379a000000000000000000000000000000000000000000000000000000000815260040161129e90612646565b60405180910390fd5b600073ffffffffffffffffffffffffffffffffffffffff168173ffffffffffffffffffffffffffffffffffffffff161415611317576040517f08c379a000000000000000000000000000000000000000000000000000000000815260040161130e90612506565b60405180910390fd5b611320816117ff565b50565b60007f01ffc9a7000000000000000000000000000000000000000000000000000000007bffffffffffffffffffffffffffffffffffffffffffffffffffffffff1916827bffffffffffffffffffffffffffffffffffffffffffffffffffffffff1916149050919050565b60008073ffffffffffffffffffffffffffffffffffffffff166002600084815260200190815260200160002060009054906101000a900473ffffffffffffffffffffffffffffffffffffffff1673ffffffffffffffffffffffffffffffffffffffff1614159050919050565b600033905090565b816004600083815260200190815260200160002060006101000a81548173ffffffffffffffffffffffffffffffffffffffff021916908373ffffffffffffffffffffffffffffffffffffffff160217905550808273ffffffffffffffffffffffffffffffffffffffff1661147483610d36565b73ffffffffffffffffffffffffffffffffffffffff167f8c5be1e5ebec7d5bd14f71427d1e84f3dd0314c0f7b2291e5b200ac8c7c3b92560405160405180910390a45050565b60006114c58261138d565b611504576040517f08c379a00000000000000000000000000000000000000000000000000000000081526004016114fb906125a6565b60405180910390fd5b600061150f83610d36565b90508073ffffffffffffffffffffffffffffffffffffffff168473ffffffffffffffffffffffffffffffffffffffff16148061157e57508373ffffffffffffffffffffffffffffffffffffffff1661156684610773565b73ffffffffffffffffffffffffffffffffffffffff16145b8061158f575061158e8185611197565b5b91505092915050565b8273ffffffffffffffffffffffffffffffffffffffff166115b882610d36565b73ffffffffffffffffffffffffffffffffffffffff161461160e576040517f08c379a000000000000000000000000000000000000000000000000000000000815260040161160590612546565b60405180910390fd5b600073ffffffffffffffffffffffffffffffffffffffff168273ffffffffffffffffffffffffffffffffffffffff16141561167e576040517f08c379a000000000000000000000000000000000000000000000000000000000815260040161167590612566565b60405180910390fd5b611689838383611c52565b611694600082611401565b6001600360008573ffffffffffffffffffffffffffffffffffffffff1673ffffffffffffffffffffffffffffffffffffffff16815260200190815260200160002060008282546116e49190612838565b925050819055506001600360008473ffffffffffffffffffffffffffffffffffffffff1673ffffffffffffffffffffffffffffffffffffffff168152602001908152602001600020600082825461173b91906127b1565b92505081905550816002600083815260200190815260200160002060006101000a81548173ffffffffffffffffffffffffffffffffffffffff021916908373ffffffffffffffffffffffffffffffffffffffff160217905550808273ffffffffffffffffffffffffffffffffffffffff168473ffffffffffffffffffffffffffffffffffffffff167fddf252ad1be2c89b69c2b068fc378daa952ba7f163c4a11628f55a4df523b3ef60405160405180910390a46117fa838383611c57565b505050565b6000600660009054906101000a900473ffffffffffffffffffffffffffffffffffffffff16905081600660006101000a81548173ffffffffffffffffffffffffffffffffffffffff021916908373ffffffffffffffffffffffffffffffffffffffff1602179055508173ffffffffffffffffffffffffffffffffffffffff168173ffffffffffffffffffffffffffffffffffffffff167f8be0079c531659141344cd1fd0a4f28419497f9722a3daafe3b4186f6b6457e060405160405180910390a35050565b8173ffffffffffffffffffffffffffffffffffffffff168373ffffffffffffffffffffffffffffffffffffffff161415611934576040517f08c379a000000000000000000000000000000000000000000000000000000000815260040161192b90612586565b60405180910390fd5b80600560008573ffffffffffffffffffffffffffffffffffffffff1673ffffffffffffffffffffffffffffffffffffffff16815260200190815260200160002060008473ffffffffffffffffffffffffffffffffffffffff1673ffffffffffffffffffffffffffffffffffffffff16815260200190815260200160002060006101000a81548160ff0219169083151502179055508173ffffffffffffffffffffffffffffffffffffffff168373ffffffffffffffffffffffffffffffffffffffff167f17307eab39ab6107e8899845ad3d59bd9653f200f220920489ca2b5937696c3183604051611a2591906124a9565b60405180910390a3505050565b611a3d848484611598565b611a4984848484611c5c565b611a88576040517f08c379a0000000000000000000000000000000000000000000000000000000008152600401611a7f906124e6565b60405180910390fd5b50505050565b606060405180602001604052806000815250905090565b60606000821415611aed576040518060400160405280600181526020017f30000000000000000000000000000000000000000000000000000000000000008152509050611c4d565b600082905060005b60008214611b1f578080611b0890612997565b915050600a82611b189190612807565b9150611af5565b60008167ffffffffffffffff811115611b61577f4e487b7100000000000000000000000000000000000000000000000000000000600052604160045260246000fd5b6040519080825280601f01601f191660200182016040528015611b935781602001600182028036833780820191505090505b5090505b60008514611c4657600182611bac9190612838565b9150600a85611bbb91906129e0565b6030611bc791906127b1565b60f81b818381518110611c03577f4e487b7100000000000000000000000000000000000000000000000000000000600052603260045260246000fd5b60200101907effffffffffffffffffffffffffffffffffffffffffffffffffffffffffffff1916908160001a905350600a85611c3f9190612807565b9450611b97565b8093505050505b919050565b505050565b505050565b6000611c7d8473ffffffffffffffffffffffffffffffffffffffff16611df3565b15611de6578373ffffffffffffffffffffffffffffffffffffffff1663150b7a02611ca66113f9565b8786866040518563ffffffff1660e01b8152600401611cc89493929190612434565b602060405180830381600087803b158015611ce257600080fd5b505af1925050508015611d1357506040513d601f19601f82011682018060405250810190611d1091906120b7565b60015b611d96573d8060008114611d43576040519150601f19603f3d011682016040523d82523d6000602084013e611d48565b606091505b50600081511415611d8e576040517f08c379a0000000000000000000000000000000000000000000000000000000008152600401611d85906124e6565b60405180910390fd5b805181602001fd5b63150b7a0260e01b7bffffffffffffffffffffffffffffffffffffffffffffffffffffffff1916817bffffffffffffffffffffffffffffffffffffffffffffffffffffffff191614915050611deb565b600190505b949350505050565b6000808273ffffffffffffffffffffffffffffffffffffffff163b119050919050565b6000611e29611e248461273d565b612718565b905082815260208101848484011115611e4157600080fd5b611e4c8482856128f2565b509392505050565b600081359050611e6381612f33565b92915050565b600081359050611e7881612f4a565b92915050565b600081359050611e8d81612f61565b92915050565b600081519050611ea281612f61565b92915050565b600082601f830112611eb957600080fd5b8135611ec9848260208601611e16565b91505092915050565b600081359050611ee181612f78565b92915050565b600060208284031215611ef957600080fd5b6000611f0784828501611e54565b91505092915050565b60008060408385031215611f2357600080fd5b6000611f3185828601611e54565b9250506020611f4285828601611e54565b9150509250929050565b600080600060608486031215611f6157600080fd5b6000611f6f86828701611e54565b9350506020611f8086828701611e54565b9250506040611f9186828701611ed2565b9150509250925092565b60008060008060808587031215611fb157600080fd5b6000611fbf87828801611e54565b9450506020611fd087828801611e54565b9350506040611fe187828801611ed2565b925050606085013567ffffffffffffffff811115611ffe57600080fd5b61200a87828801611ea8565b91505092959194509250565b6000806040838503121561202957600080fd5b600061203785828601611e54565b925050602061204885828601611e69565b9150509250929050565b6000806040838503121561206557600080fd5b600061207385828601611e54565b925050602061208485828601611ed2565b9150509250929050565b6000602082840312156120a057600080fd5b60006120ae84828501611e7e565b91505092915050565b6000602082840312156120c957600080fd5b60006120d784828501611e93565b91505092915050565b6000602082840312156120f257600080fd5b600061210084828501611ed2565b91505092915050565b6121128161287e565b82525050565b6121218161286c565b82525050565b61213081612890565b82525050565b60006121418261276e565b61214b8185612784565b935061215b818560208601612901565b61216481612acd565b840191505092915050565b600061217a82612779565b6121848185612795565b9350612194818560208601612901565b61219d81612acd565b840191505092915050565b60006121b382612779565b6121bd81856127a6565b93506121cd818560208601612901565b80840191505092915050565b60006121e6603283612795565b91506121f182612ade565b604082019050919050565b6000612209602683612795565b915061221482612b2d565b604082019050919050565b600061222c604083612795565b915061223782612b7c565b604082019050919050565b600061224f602583612795565b915061225a82612bcb565b604082019050919050565b6000612272602483612795565b915061227d82612c1a565b604082019050919050565b6000612295601983612795565b91506122a082612c69565b602082019050919050565b60006122b8602c83612795565b91506122c382612c92565b604082019050919050565b60006122db603883612795565b91506122e682612ce1565b604082019050919050565b60006122fe602a83612795565b915061230982612d30565b604082019050919050565b6000612321602983612795565b915061232c82612d7f565b604082019050919050565b6000612344602c83612795565b915061234f82612dce565b604082019050919050565b6000612367602083612795565b915061237282612e1d565b602082019050919050565b600061238a602f83612795565b915061239582612e46565b604082019050919050565b60006123ad602183612795565b91506123b882612e95565b604082019050919050565b60006123d0603183612795565b91506123db82612ee4565b604082019050919050565b6123ef816128e8565b82525050565b600061240182856121a8565b915061240d82846121a8565b91508190509392505050565b600060208201905061242e6000830184612118565b92915050565b60006080820190506124496000830187612118565b6124566020830186612118565b61246360408301856123e6565b81810360608301526124758184612136565b905095945050505050565b60006040820190506124956000830185612118565b6124a260208301846123e6565b9392505050565b60006020820190506124be6000830184612127565b92915050565b600060208201905081810360008301526124de818461216f565b905092915050565b600060208201905081810360008301526124ff816121d9565b9050919050565b6000602082019050818103600083015261251f816121fc565b9050919050565b6000602082019050818103600083015261253f8161221f565b9050919050565b6000602082019050818103600083015261255f81612242565b9050919050565b6000602082019050818103600083015261257f81612265565b9050919050565b6000602082019050818103600083015261259f81612288565b9050919050565b600060208201905081810360008301526125bf816122ab565b9050919050565b600060208201905081810360008301526125df816122ce565b9050919050565b600060208201905081810360008301526125ff816122f1565b9050919050565b6000602082019050818103600083015261261f81612314565b9050919050565b6000602082019050818103600083015261263f81612337565b9050919050565b6000602082019050818103600083015261265f8161235a565b9050919050565b6000602082019050818103600083015261267f8161237d565b9050919050565b6000602082019050818103600083015261269f816123a0565b9050919050565b600060208201905081810360008301526126bf816123c3565b9050919050565b60006020820190506126db60008301846123e6565b92915050565b60006060820190506126f660008301866123e6565b6127036020830185612109565b61271060408301846123e6565b949350505050565b6000612722612733565b905061272e8282612966565b919050565b6000604051905090565b600067ffffffffffffffff82111561275857612757612a9e565b5b61276182612acd565b9050602081019050919050565b600081519050919050565b600081519050919050565b600082825260208201905092915050565b600082825260208201905092915050565b600081905092915050565b60006127bc826128e8565b91506127c7836128e8565b9250827fffffffffffffffffffffffffffffffffffffffffffffffffffffffffffffffff038211156127fc576127fb612a11565b5b828201905092915050565b6000612812826128e8565b915061281d836128e8565b92508261282d5761282c612a40565b5b828204905092915050565b6000612843826128e8565b915061284e836128e8565b92508282101561286157612860612a11565b5b828203905092915050565b6000612877826128c8565b9050919050565b6000612889826128c8565b9050919050565b60008115159050919050565b60007fffffffff0000000000000000000000000000000000000000000000000000000082169050919050565b600073ffffffffffffffffffffffffffffffffffffffff82169050919050565b6000819050919050565b82818337600083830152505050565b60005b8381101561291f578082015181840152602081019050612904565b8381111561292e576000848401525b50505050565b6000600282049050600182168061294c57607f821691505b602082108114156129605761295f612a6f565b5b50919050565b61296f82612acd565b810181811067ffffffffffffffff8211171561298e5761298d612a9e565b5b80604052505050565b60006129a2826128e8565b91507fffffffffffffffffffffffffffffffffffffffffffffffffffffffffffffffff8214156129d5576129d4612a11565b5b600182019050919050565b60006129eb826128e8565b91506129f6836128e8565b925082612a0657612a05612a40565b5b828206905092915050565b7f4e487b7100000000000000000000000000000000000000000000000000000000600052601160045260246000fd5b7f4e487b7100000000000000000000000000000000000000000000000000000000600052601260045260246000fd5b7f4e487b7100000000000000000000000000000000000000000000000000000000600052602260045260246000fd5b7f4e487b7100000000000000000000000000000000000000000000000000000000600052604160045260246000fd5b6000601f19601f8301169050919050565b7f4552433732313a207472616e7366657220746f206e6f6e20455243373231526560008201527f63656976657220696d706c656d656e7465720000000000000000000000000000602082015250565b7f4f776e61626c653a206e6577206f776e657220697320746865207a65726f206160008201527f6464726573730000000000000000000000000000000000000000000000000000602082015250565b7f506c656173652073656e64207468652061736b696e6720707269636520696e2060008201527f6f7264657220746f20636f6d706c65746520746865207472616e616374696f6e602082015250565b7f4552433732313a207472616e736665722066726f6d20696e636f72726563742060008201527f6f776e6572000000000000000000000000000000000000000000000000000000602082015250565b7f4552433732313a207472616e7366657220746f20746865207a65726f2061646460008201527f7265737300000000000000000000000000000000000000000000000000000000602082015250565b7f4552433732313a20617070726f766520746f2063616c6c657200000000000000600082015250565b7f4552433732313a206f70657261746f7220717565727920666f72206e6f6e657860008201527f697374656e7420746f6b656e0000000000000000000000000000000000000000602082015250565b7f4552433732313a20617070726f76652063616c6c6572206973206e6f74206f7760008201527f6e6572206e6f7220617070726f76656420666f7220616c6c0000000000000000602082015250565b7f4552433732313a2062616c616e636520717565727920666f7220746865207a6560008201527f726f206164647265737300000000000000000000000000000000000000000000602082015250565b7f4552433732313a206f776e657220717565727920666f72206e6f6e657869737460008201527f656e7420746f6b656e0000000000000000000000000000000000000000000000602082015250565b7f4552433732313a20617070726f76656420717565727920666f72206e6f6e657860008201527f697374656e7420746f6b656e0000000000000000000000000000000000000000602082015250565b7f4f776e61626c653a2063616c6c6572206973206e6f7420746865206f776e6572600082015250565b7f4552433732314d657461646174613a2055524920717565727920666f72206e6f60008201527f6e6578697374656e7420746f6b656e0000000000000000000000000000000000602082015250565b7f4552433732313a20617070726f76616c20746f2063757272656e74206f776e6560008201527f7200000000000000000000000000000000000000000000000000000000000000602082015250565b7f4552433732313a207472616e736665722063616c6c6572206973206e6f74206f60008201527f776e6572206e6f7220617070726f766564000000000000000000000000000000602082015250565b612f3c8161286c565b8114612f4757600080fd5b50565b612f5381612890565b8114612f5e57600080fd5b50565b612f6a8161289c565b8114612f7557600080fd5b50565b612f81816128e8565b8114612f8c57600080fd5b5056fea26469706673582212207104e2b2d105fc1597203a63424f5d034de6307d261f4fabd892aa6d7e2ae9b064736f6c6343000804003368747470733a2f2f62616679626569687a6c6e707637657135693575746b6d6337786575623367767a737a6a697175366a763572706264686934326e696566623664752e697066732e6e667473746f726167652e6c696e6b2f",
  "linkReferences": {},
  "deployedLinkReferences": {}
}